{
  "contractName": "IDO",
  "abi": [
    {
      "inputs": [],
      "stateMutability": "nonpayable",
      "type": "constructor"
    },
    {
      "anonymous": false,
      "inputs": [
        {
          "indexed": true,
          "internalType": "uint256",
          "name": "poolId",
          "type": "uint256"
        },
        {
          "indexed": false,
          "internalType": "uint256",
          "name": "amount",
          "type": "uint256"
        },
        {
          "indexed": false,
          "internalType": "address",
          "name": "token",
          "type": "address"
        }
      ],
      "name": "FundsRetrieved",
      "type": "event"
    },
    {
      "anonymous": false,
      "inputs": [
        {
          "indexed": true,
          "internalType": "uint256",
          "name": "poolId",
          "type": "uint256"
        },
        {
          "indexed": false,
          "internalType": "uint256",
          "name": "amount",
          "type": "uint256"
        },
        {
          "indexed": false,
          "internalType": "address",
          "name": "token",
          "type": "address"
        }
      ],
      "name": "NewInvestment",
      "type": "event"
    },
    {
      "anonymous": false,
      "inputs": [
        {
          "indexed": true,
          "internalType": "uint256",
          "name": "poolId",
          "type": "uint256"
        },
        {
          "indexed": false,
          "internalType": "uint256",
          "name": "hardCap",
          "type": "uint256"
        },
        {
          "indexed": false,
          "internalType": "uint256",
          "name": "softCap",
          "type": "uint256"
        },
        {
          "indexed": false,
          "internalType": "uint256",
          "name": "startDate",
          "type": "uint256"
        },
        {
          "indexed": false,
          "internalType": "uint256",
          "name": "endDate",
          "type": "uint256"
        },
        {
          "indexed": false,
          "internalType": "address",
          "name": "mainToken",
          "type": "address"
        },
        {
          "indexed": false,
          "internalType": "address",
          "name": "projectToken",
          "type": "address"
        },
        {
          "indexed": false,
          "internalType": "uint256",
          "name": "minAllocationPerUser",
          "type": "uint256"
        }
      ],
      "name": "NewPool",
      "type": "event"
    },
    {
      "anonymous": false,
      "inputs": [
        {
          "indexed": true,
          "internalType": "uint256",
          "name": "poolId",
          "type": "uint256"
        },
        {
          "indexed": false,
          "internalType": "uint256",
          "name": "amount",
          "type": "uint256"
        },
        {
          "indexed": false,
          "internalType": "address",
          "name": "token",
          "type": "address"
        }
      ],
      "name": "PoolFunded",
      "type": "event"
    },
    {
      "anonymous": false,
      "inputs": [
        {
          "indexed": true,
          "internalType": "uint256",
          "name": "poolId",
          "type": "uint256"
        },
        {
          "indexed": false,
          "internalType": "uint256",
          "name": "amount",
          "type": "uint256"
        },
        {
          "indexed": false,
          "internalType": "address",
          "name": "token",
          "type": "address"
        }
      ],
      "name": "TokensClaimed",
      "type": "event"
    },
    {
      "inputs": [
        {
          "internalType": "uint256",
          "name": "",
          "type": "uint256"
        }
      ],
      "name": "accessManager",
      "outputs": [
        {
          "internalType": "address",
          "name": "",
          "type": "address"
        }
      ],
      "stateMutability": "view",
      "type": "function"
    },
    {
      "inputs": [],
      "name": "adminAddress",
      "outputs": [
        {
          "internalType": "address",
          "name": "",
          "type": "address"
        }
      ],
      "stateMutability": "view",
      "type": "function"
    },
    {
      "inputs": [
        {
          "internalType": "uint256",
          "name": "",
          "type": "uint256"
        },
        {
          "internalType": "address",
          "name": "",
          "type": "address"
        }
      ],
      "name": "amountList",
      "outputs": [
        {
          "internalType": "uint256",
          "name": "",
          "type": "uint256"
        }
      ],
      "stateMutability": "view",
      "type": "function"
    },
    {
      "inputs": [],
      "name": "mainTokenInstance",
      "outputs": [
        {
          "internalType": "contract PoolToken",
          "name": "",
          "type": "address"
        }
      ],
      "stateMutability": "view",
      "type": "function"
    },
    {
      "inputs": [
        {
          "internalType": "address",
          "name": "",
          "type": "address"
        }
      ],
      "name": "managerWhiteList",
      "outputs": [
        {
          "internalType": "bool",
          "name": "",
          "type": "bool"
        }
      ],
      "stateMutability": "view",
      "type": "function"
    },
    {
      "inputs": [],
      "name": "poolCounter",
      "outputs": [
        {
          "internalType": "uint256",
          "name": "",
          "type": "uint256"
        }
      ],
      "stateMutability": "view",
      "type": "function"
    },
    {
      "inputs": [
        {
          "internalType": "uint256",
          "name": "",
          "type": "uint256"
        }
      ],
      "name": "poolData",
      "outputs": [
        {
          "internalType": "uint256",
          "name": "hardCap",
          "type": "uint256"
        },
        {
          "internalType": "uint256",
          "name": "softCap",
          "type": "uint256"
        },
        {
          "internalType": "uint256",
          "name": "startDate",
          "type": "uint256"
        },
        {
          "internalType": "uint256",
          "name": "endDate",
          "type": "uint256"
        },
        {
          "internalType": "address",
          "name": "mainToken",
          "type": "address"
        },
        {
          "internalType": "address",
          "name": "projectToken",
          "type": "address"
        },
        {
          "internalType": "uint256",
          "name": "minAllocationPerUser",
          "type": "uint256"
        },
        {
          "internalType": "uint256",
          "name": "exchangeRate",
          "type": "uint256"
        },
        {
          "internalType": "string",
          "name": "status",
          "type": "string"
        },
        {
          "internalType": "uint256",
          "name": "totalInvested",
          "type": "uint256"
        },
        {
          "internalType": "uint256",
          "name": "totalProjectTokens",
          "type": "uint256"
        },
        {
          "internalType": "bool",
          "name": "created",
          "type": "bool"
        }
      ],
      "stateMutability": "view",
      "type": "function"
    },
    {
      "inputs": [],
      "name": "projectTokenInstance",
      "outputs": [
        {
          "internalType": "contract PoolToken",
          "name": "",
          "type": "address"
        }
      ],
      "stateMutability": "view",
      "type": "function"
    },
    {
      "inputs": [
        {
          "internalType": "uint256",
          "name": "",
          "type": "uint256"
        }
      ],
      "name": "tokenPrice",
      "outputs": [
        {
          "internalType": "uint256",
          "name": "",
          "type": "uint256"
        }
      ],
      "stateMutability": "view",
      "type": "function"
    },
    {
      "inputs": [
        {
          "internalType": "uint256",
          "name": "",
          "type": "uint256"
        }
      ],
      "name": "tokensSold",
      "outputs": [
        {
          "internalType": "uint256",
          "name": "",
          "type": "uint256"
        }
      ],
      "stateMutability": "view",
      "type": "function"
    },
    {
      "inputs": [
        {
          "internalType": "uint256",
          "name": "",
          "type": "uint256"
        },
        {
          "internalType": "uint256",
          "name": "",
          "type": "uint256"
        }
      ],
      "name": "whiteList",
      "outputs": [
        {
          "internalType": "address",
          "name": "",
          "type": "address"
        }
      ],
      "stateMutability": "view",
      "type": "function"
    },
    {
      "inputs": [
        {
          "internalType": "uint256",
          "name": "idPool",
          "type": "uint256"
        }
      ],
      "name": "poolExists",
      "outputs": [
        {
          "internalType": "bool",
          "name": "",
          "type": "bool"
        }
      ],
      "stateMutability": "view",
      "type": "function"
    },
    {
      "inputs": [
        {
          "internalType": "address",
          "name": "_accessManagerContract",
          "type": "address"
        }
      ],
      "name": "addManager",
      "outputs": [],
      "stateMutability": "nonpayable",
      "type": "function"
    },
    {
      "inputs": [
        {
          "internalType": "address",
          "name": "_accessManagerContract",
          "type": "address"
        }
      ],
      "name": "delistManager",
      "outputs": [],
      "stateMutability": "nonpayable",
      "type": "function"
    },
    {
      "inputs": [
        {
          "internalType": "uint256",
          "name": "hardCap",
          "type": "uint256"
        },
        {
          "internalType": "uint256",
          "name": "softCap",
          "type": "uint256"
        },
        {
          "internalType": "uint256",
          "name": "startDate",
          "type": "uint256"
        },
        {
          "internalType": "uint256",
          "name": "endDate",
          "type": "uint256"
        },
        {
          "internalType": "address",
          "name": "mainToken",
          "type": "address"
        },
        {
          "internalType": "address",
          "name": "projectToken",
          "type": "address"
        },
        {
          "internalType": "uint256",
          "name": "minAllocationPerUser",
          "type": "uint256"
        },
        {
          "internalType": "address",
          "name": "_accessManagerContract",
          "type": "address"
        },
        {
          "internalType": "uint256",
          "name": "exchangeRate",
          "type": "uint256"
        },
        {
          "internalType": "uint256",
          "name": "_tokenPrice",
          "type": "uint256"
        }
      ],
      "name": "initiatePool",
      "outputs": [
        {
          "internalType": "uint256",
          "name": "",
          "type": "uint256"
        }
      ],
      "stateMutability": "nonpayable",
      "type": "function"
    },
    {
      "inputs": [],
      "name": "getPoolId",
      "outputs": [
        {
          "internalType": "uint256",
          "name": "",
          "type": "uint256"
        }
      ],
      "stateMutability": "view",
      "type": "function"
    },
    {
      "inputs": [
        {
          "internalType": "uint256",
          "name": "poolId",
          "type": "uint256"
        },
        {
          "internalType": "uint256",
          "name": "_hardCap",
          "type": "uint256"
        }
      ],
      "name": "setHardCap",
      "outputs": [],
      "stateMutability": "nonpayable",
      "type": "function"
    },
    {
      "inputs": [
        {
          "internalType": "uint256",
          "name": "poolId",
          "type": "uint256"
        }
      ],
      "name": "getHardCap",
      "outputs": [
        {
          "internalType": "uint256",
          "name": "",
          "type": "uint256"
        }
      ],
      "stateMutability": "view",
      "type": "function"
    },
    {
      "inputs": [
        {
          "internalType": "uint256",
          "name": "poolId",
          "type": "uint256"
        },
        {
          "internalType": "uint256",
          "name": "_softCap",
          "type": "uint256"
        }
      ],
      "name": "setSoftCap",
      "outputs": [],
      "stateMutability": "nonpayable",
      "type": "function"
    },
    {
      "inputs": [
        {
          "internalType": "uint256",
          "name": "poolId",
          "type": "uint256"
        }
      ],
      "name": "getSoftCap",
      "outputs": [
        {
          "internalType": "uint256",
          "name": "",
          "type": "uint256"
        }
      ],
      "stateMutability": "view",
      "type": "function"
    },
    {
      "inputs": [
        {
          "internalType": "uint256",
          "name": "poolId",
          "type": "uint256"
        },
        {
          "internalType": "uint256",
          "name": "_startDate",
          "type": "uint256"
        }
      ],
      "name": "setStartDate",
      "outputs": [],
      "stateMutability": "nonpayable",
      "type": "function"
    },
    {
      "inputs": [
        {
          "internalType": "uint256",
          "name": "poolId",
          "type": "uint256"
        }
      ],
      "name": "getStartDate",
      "outputs": [
        {
          "internalType": "uint256",
          "name": "",
          "type": "uint256"
        }
      ],
      "stateMutability": "view",
      "type": "function"
    },
    {
      "inputs": [
        {
          "internalType": "uint256",
          "name": "poolId",
          "type": "uint256"
        },
        {
          "internalType": "uint256",
          "name": "_endDate",
          "type": "uint256"
        }
      ],
      "name": "setEndDate",
      "outputs": [],
      "stateMutability": "nonpayable",
      "type": "function"
    },
    {
      "inputs": [
        {
          "internalType": "uint256",
          "name": "poolId",
          "type": "uint256"
        }
      ],
      "name": "getEndDate",
      "outputs": [
        {
          "internalType": "uint256",
          "name": "",
          "type": "uint256"
        }
      ],
      "stateMutability": "view",
      "type": "function"
    },
    {
      "inputs": [
        {
          "internalType": "uint256",
          "name": "poolId",
          "type": "uint256"
        },
        {
          "internalType": "address",
          "name": "_tokenAddress",
          "type": "address"
        }
      ],
      "name": "setMainToken",
      "outputs": [],
      "stateMutability": "nonpayable",
      "type": "function"
    },
    {
      "inputs": [
        {
          "internalType": "uint256",
          "name": "poolId",
          "type": "uint256"
        }
      ],
      "name": "getMainToken",
      "outputs": [
        {
          "internalType": "address",
          "name": "",
          "type": "address"
        }
      ],
      "stateMutability": "view",
      "type": "function"
    },
    {
      "inputs": [
        {
          "internalType": "uint256",
          "name": "poolId",
          "type": "uint256"
        },
        {
          "internalType": "address",
          "name": "_tokenAddress",
          "type": "address"
        }
      ],
      "name": "setProjectToken",
      "outputs": [],
      "stateMutability": "nonpayable",
      "type": "function"
    },
    {
      "inputs": [
        {
          "internalType": "uint256",
          "name": "poolId",
          "type": "uint256"
        }
      ],
      "name": "getProjectToken",
      "outputs": [
        {
          "internalType": "address",
          "name": "",
          "type": "address"
        }
      ],
      "stateMutability": "view",
      "type": "function"
    },
    {
      "inputs": [
        {
          "internalType": "uint256",
          "name": "poolId",
          "type": "uint256"
        },
        {
          "internalType": "uint256",
          "name": "_minAllocationPerUser",
          "type": "uint256"
        }
      ],
      "name": "setMinAllocation",
      "outputs": [],
      "stateMutability": "nonpayable",
      "type": "function"
    },
    {
      "inputs": [
        {
          "internalType": "uint256",
          "name": "poolId",
          "type": "uint256"
        }
      ],
      "name": "getMinAllocation",
      "outputs": [
        {
          "internalType": "uint256",
          "name": "",
          "type": "uint256"
        }
      ],
      "stateMutability": "view",
      "type": "function"
    },
    {
      "inputs": [
        {
          "internalType": "uint256",
          "name": "poolId",
          "type": "uint256"
        }
      ],
      "name": "getAdminAddress",
      "outputs": [
        {
          "internalType": "address",
          "name": "",
          "type": "address"
        }
      ],
      "stateMutability": "view",
      "type": "function"
    },
    {
      "inputs": [
        {
          "internalType": "uint256",
          "name": "poolId",
          "type": "uint256"
        }
      ],
      "name": "getExchangeRate",
      "outputs": [
        {
          "internalType": "uint256",
          "name": "",
          "type": "uint256"
        }
      ],
      "stateMutability": "view",
      "type": "function"
    },
    {
      "inputs": [
        {
          "internalType": "uint256",
          "name": "poolId",
          "type": "uint256"
        },
        {
          "internalType": "uint256",
          "name": "newRate",
          "type": "uint256"
        }
      ],
      "name": "setExchangeRate",
      "outputs": [],
      "stateMutability": "nonpayable",
      "type": "function"
    },
    {
      "inputs": [
        {
          "internalType": "uint256",
          "name": "poolId",
          "type": "uint256"
        },
        {
          "internalType": "string",
          "name": "_status",
          "type": "string"
        }
      ],
      "name": "setStatus",
      "outputs": [],
      "stateMutability": "nonpayable",
      "type": "function"
    },
    {
      "inputs": [
        {
          "internalType": "uint256",
          "name": "poolId",
          "type": "uint256"
        }
      ],
      "name": "getStatus",
      "outputs": [
        {
          "internalType": "string",
          "name": "",
          "type": "string"
        }
      ],
      "stateMutability": "view",
      "type": "function"
    },
    {
      "inputs": [
        {
          "internalType": "uint256",
          "name": "poolId",
          "type": "uint256"
        },
        {
          "internalType": "address",
          "name": "investor",
          "type": "address"
        }
      ],
      "name": "whiteListForPool",
      "outputs": [],
      "stateMutability": "nonpayable",
      "type": "function"
    },
    {
      "inputs": [
        {
          "internalType": "uint256",
          "name": "poolId",
          "type": "uint256"
        },
        {
          "internalType": "address",
          "name": "investor",
          "type": "address"
        }
      ],
      "name": "isWhiteListedForPool",
      "outputs": [
        {
          "internalType": "bool",
          "name": "",
          "type": "bool"
        }
      ],
      "stateMutability": "view",
      "type": "function"
    },
    {
      "inputs": [
        {
          "internalType": "uint256",
          "name": "poolId",
          "type": "uint256"
        },
        {
          "internalType": "uint256",
          "name": "_numberOfTokens",
          "type": "uint256"
        }
      ],
      "name": "approve",
      "outputs": [],
      "stateMutability": "payable",
      "type": "function"
    },
    {
      "inputs": [
        {
          "internalType": "uint256",
          "name": "poolId",
          "type": "uint256"
        },
        {
          "internalType": "uint256",
          "name": "_numberOfTokens",
          "type": "uint256"
        }
      ],
      "name": "invest",
      "outputs": [],
      "stateMutability": "payable",
      "type": "function"
    },
    {
      "inputs": [
        {
          "internalType": "uint256",
          "name": "poolId",
          "type": "uint256"
        }
      ],
      "name": "getAmountInvested",
      "outputs": [
        {
          "internalType": "uint256",
          "name": "",
          "type": "uint256"
        }
      ],
      "stateMutability": "view",
      "type": "function"
    },
    {
      "inputs": [
        {
          "internalType": "uint256",
          "name": "poolId",
          "type": "uint256"
        },
        {
          "internalType": "address",
          "name": "investor",
          "type": "address"
        }
      ],
      "name": "getAmountInvestedByAddress",
      "outputs": [
        {
          "internalType": "uint256",
          "name": "",
          "type": "uint256"
        }
      ],
      "stateMutability": "view",
      "type": "function"
    },
    {
      "inputs": [
        {
          "internalType": "uint256",
          "name": "poolId",
          "type": "uint256"
        }
      ],
      "name": "getExchangeAmount",
      "outputs": [
        {
          "internalType": "uint256",
          "name": "",
          "type": "uint256"
        }
      ],
      "stateMutability": "view",
      "type": "function"
    },
    {
      "inputs": [
        {
          "internalType": "uint256",
          "name": "poolId",
          "type": "uint256"
        },
        {
          "internalType": "uint256",
          "name": "amount",
          "type": "uint256"
        }
      ],
      "name": "getExchangeAmountFor",
      "outputs": [
        {
          "internalType": "uint256",
          "name": "",
          "type": "uint256"
        }
      ],
      "stateMutability": "view",
      "type": "function"
    },
    {
      "inputs": [
        {
          "internalType": "uint256",
          "name": "poolId",
          "type": "uint256"
        }
      ],
      "name": "getTotalInvested",
      "outputs": [
        {
          "internalType": "uint256",
          "name": "",
          "type": "uint256"
        }
      ],
      "stateMutability": "view",
      "type": "function"
    },
    {
      "inputs": [
        {
          "internalType": "uint256",
          "name": "poolId",
          "type": "uint256"
        }
      ],
      "name": "getTokenPrice",
      "outputs": [
        {
          "internalType": "uint256",
          "name": "",
          "type": "uint256"
        }
      ],
      "stateMutability": "view",
      "type": "function"
    },
    {
      "inputs": [
        {
          "internalType": "uint256",
          "name": "poolId",
          "type": "uint256"
        }
      ],
      "name": "approveClaim",
      "outputs": [],
      "stateMutability": "nonpayable",
      "type": "function"
    },
    {
      "inputs": [
        {
          "internalType": "uint256",
          "name": "poolId",
          "type": "uint256"
        }
      ],
      "name": "claim",
      "outputs": [],
      "stateMutability": "payable",
      "type": "function"
    },
    {
      "inputs": [
        {
          "internalType": "uint256",
          "name": "poolId",
          "type": "uint256"
        }
      ],
      "name": "getTokensSold",
      "outputs": [
        {
          "internalType": "uint256",
          "name": "",
          "type": "uint256"
        }
      ],
      "stateMutability": "view",
      "type": "function"
    },
    {
      "inputs": [
        {
          "internalType": "uint256",
          "name": "poolId",
          "type": "uint256"
        }
      ],
      "name": "getInvestors",
      "outputs": [
        {
          "internalType": "address[]",
          "name": "",
          "type": "address[]"
        }
      ],
      "stateMutability": "view",
      "type": "function"
    },
    {
      "inputs": [
        {
          "internalType": "uint256",
          "name": "poolId",
          "type": "uint256"
        }
      ],
      "name": "getProjectTokenTotal",
      "outputs": [
        {
          "internalType": "uint256",
          "name": "",
          "type": "uint256"
        }
      ],
      "stateMutability": "view",
      "type": "function"
    },
    {
      "inputs": [],
      "name": "getBlockTimeStamp",
      "outputs": [
        {
          "internalType": "uint256",
          "name": "",
          "type": "uint256"
        }
      ],
      "stateMutability": "view",
      "type": "function"
    },
    {
      "inputs": [
        {
          "internalType": "uint256",
          "name": "poolId",
          "type": "uint256"
        },
        {
          "internalType": "uint256",
          "name": "_numberOfTokens",
          "type": "uint256"
        }
      ],
      "name": "sendProjectTokens",
      "outputs": [],
      "stateMutability": "payable",
      "type": "function"
    },
    {
      "inputs": [
        {
          "internalType": "uint256",
          "name": "poolId",
          "type": "uint256"
        },
        {
          "internalType": "uint256",
          "name": "additionalTokens",
          "type": "uint256"
        }
      ],
      "name": "canPayout",
      "outputs": [
        {
          "internalType": "bool",
          "name": "",
          "type": "bool"
        }
      ],
      "stateMutability": "view",
      "type": "function"
    },
    {
      "inputs": [
        {
          "internalType": "uint256",
          "name": "poolId",
          "type": "uint256"
        }
      ],
      "name": "approveRetrieve",
      "outputs": [],
      "stateMutability": "nonpayable",
      "type": "function"
    },
    {
      "inputs": [
        {
          "internalType": "uint256",
          "name": "poolId",
          "type": "uint256"
        }
      ],
      "name": "retrieveMainTokens",
      "outputs": [],
      "stateMutability": "payable",
      "type": "function"
    }
  ],
  "bytecode": "0x608060405234801561001057600080fd5b5033600960006101000a81548173ffffffffffffffffffffffffffffffffffffffff021916908373ffffffffffffffffffffffffffffffffffffffff16021790555061573e80620000626000396000f3fe6080604052600436106103505760003560e01c80637402ba96116101c6578063ca3a9c35116100f7578063dab4e1c911610095578063ec0020811161006f578063ec00208114610d79578063f0a1013714610dc1578063f55ecf0614610dfe578063fc6f946814610e2757610350565b8063dab4e1c914610cea578063e3f92d5e14610d13578063eaf3d77314610d3c57610350565b8063d2ccac17116100d1578063d2ccac1714610c17578063d4ddce8a14610c54578063d87aa64314610c91578063d9e7c93814610cad57610350565b8063ca3a9c3514610b86578063ca49a54314610bc3578063d052526614610bee57610350565b806394474d5711610164578063b21bbd071161013e578063b21bbd0714610a92578063ba92763a14610acf578063c457fb3714610b0c578063c50aa1f214610b4957610350565b806394474d5714610a015780639e3079cb14610a3e5780639f56d13514610a6957610350565b806376917df9116101a057806376917df9146109425780637d2a7b951461096b5780638b19e7b7146109875780638f640151146109c457610350565b80637402ba96146108b357806374371a09146108f0578063751e89421461091957610350565b80633d230ea4116102a05780635d35a3d91161023e57806364e9b4211161021857806364e9b421146107e757806365ad9f341461082457806367453d311461084d57806372fc95251461088a57610350565b80635d35a3d9146107515780635e1871d21461076d57806362aaf089146107aa57610350565b80634aa8fc561161027a5780634aa8fc561461065d57806357d178051461069a5780635c622a0e146106d75780635c6b047a1461071457610350565b80633d230ea4146105cc57806343cb4ac4146105f757806346e301351461063457610350565b80632d06177a1161030d57806332194dad116102e757806332194dad1461052c57806332f07f0714610569578063379607f51461058557806338fff2d0146105a157610350565b80632d06177a1461049d5780632ff5c96f146104c65780633165f0c21461050357610350565b80630292943a14610355578063046babe414610392578063088fee5b146103bd5780631139de55146103e65780631ab6ab04146104235780632b190b2514610460575b600080fd5b34801561036157600080fd5b5061037c600480360381019061037791906146e8565b610e52565b6040516103899190614ebe565b60405180910390f35b34801561039e57600080fd5b506103a7610ebc565b6040516103b49190614cc1565b60405180910390f35b3480156103c957600080fd5b506103e460048036038101906103df9190614711565b610ee0565b005b3480156103f257600080fd5b5061040d600480360381019061040891906146e8565b611024565b60405161041a9190614c84565b60405180910390f35b34801561042f57600080fd5b5061044a600480360381019061044591906146e8565b61110f565b6040516104579190614c32565b60405180910390f35b34801561046c57600080fd5b5061048760048036038101906104829190614711565b611199565b6040516104949190614ca6565b60405180910390f35b3480156104a957600080fd5b506104c460048036038101906104bf9190614696565b6112d8565b005b3480156104d257600080fd5b506104ed60048036038101906104e891906147a1565b6113c3565b6040516104fa9190614c32565b60405180910390f35b34801561050f57600080fd5b5061052a600480360381019061052591906146e8565b611411565b005b34801561053857600080fd5b50610553600480360381019061054e9190614711565b6115e3565b6040516105609190614ebe565b60405180910390f35b610583600480360381019061057e91906146e8565b61163e565b005b61059f600480360381019061059a91906146e8565b611975565b005b3480156105ad57600080fd5b506105b6611db8565b6040516105c39190614ebe565b60405180910390f35b3480156105d857600080fd5b506105e1611dc2565b6040516105ee9190614cc1565b60405180910390f35b34801561060357600080fd5b5061061e600480360381019061061991906146e8565b611de8565b60405161062b9190614ebe565b60405180910390f35b34801561064057600080fd5b5061065b600480360381019061065691906146e8565b611e52565b005b34801561066957600080fd5b50610684600480360381019061067f91906147dd565b612016565b6040516106919190614ebe565b60405180910390f35b3480156106a657600080fd5b506106c160048036038101906106bc91906146e8565b612491565b6040516106ce9190614ebe565b60405180910390f35b3480156106e357600080fd5b506106fe60048036038101906106f991906146e8565b6124f8565b60405161070b9190614cdc565b60405180910390f35b34801561072057600080fd5b5061073b600480360381019061073691906146e8565b6127dd565b6040516107489190614ebe565b60405180910390f35b61076b600480360381019061076691906147a1565b6127fd565b005b34801561077957600080fd5b50610794600480360381019061078f91906146e8565b612a3a565b6040516107a19190614ca6565b60405180910390f35b3480156107b657600080fd5b506107d160048036038101906107cc91906146e8565b612a75565b6040516107de9190614ebe565b60405180910390f35b3480156107f357600080fd5b5061080e600480360381019061080991906147a1565b612adf565b60405161081b9190614ca6565b60405180910390f35b34801561083057600080fd5b5061084b600480360381019061084691906147a1565b612b77565b005b34801561085957600080fd5b50610874600480360381019061086f91906146e8565b612c81565b6040516108819190614ebe565b60405180910390f35b34801561089657600080fd5b506108b160048036038101906108ac9190614711565b612cdb565b005b3480156108bf57600080fd5b506108da60048036038101906108d591906146e8565b612e3e565b6040516108e79190614ebe565b60405180910390f35b3480156108fc57600080fd5b50610917600480360381019061091291906147a1565b612e56565b005b34801561092557600080fd5b50610940600480360381019061093b91906147a1565b612f60565b005b34801561094e57600080fd5b506109696004803603810190610964919061474d565b61306a565b005b610985600480360381019061098091906147a1565b613184565b005b34801561099357600080fd5b506109ae60048036038101906109a991906146e8565b613581565b6040516109bb9190614ebe565b60405180910390f35b3480156109d057600080fd5b506109eb60048036038101906109e69190614696565b613633565b6040516109f89190614ca6565b60405180910390f35b348015610a0d57600080fd5b50610a286004803603810190610a2391906146e8565b613653565b604051610a359190614c32565b60405180910390f35b348015610a4a57600080fd5b50610a53613686565b604051610a609190614ebe565b60405180910390f35b348015610a7557600080fd5b50610a906004803603810190610a8b91906147a1565b61368c565b005b348015610a9e57600080fd5b50610ab96004803603810190610ab491906147a1565b613796565b604051610ac69190614ebe565b60405180910390f35b348015610adb57600080fd5b50610af66004803603810190610af191906146e8565b6137ce565b604051610b039190614ebe565b60405180910390f35b348015610b1857600080fd5b50610b336004803603810190610b2e91906146e8565b613838565b604051610b409190614ebe565b60405180910390f35b348015610b5557600080fd5b50610b706004803603810190610b6b9190614711565b61389f565b604051610b7d9190614ebe565b60405180910390f35b348015610b9257600080fd5b50610bad6004803603810190610ba891906146e8565b6138c4565b604051610bba9190614ebe565b60405180910390f35b348015610bcf57600080fd5b50610bd861392e565b604051610be59190614ebe565b60405180910390f35b348015610bfa57600080fd5b50610c156004803603810190610c109190614711565b61393b565b005b348015610c2357600080fd5b50610c3e6004803603810190610c3991906146e8565b613a7f565b604051610c4b9190614ebe565b60405180910390f35b348015610c6057600080fd5b50610c7b6004803603810190610c7691906146e8565b613ae9565b604051610c889190614ebe565b60405180910390f35b610cab6004803603810190610ca691906147a1565b613b01565b005b348015610cb957600080fd5b50610cd46004803603810190610ccf91906146e8565b613fb1565b604051610ce19190614ebe565b60405180910390f35b348015610cf657600080fd5b50610d116004803603810190610d0c91906147a1565b614082565b005b348015610d1f57600080fd5b50610d3a6004803603810190610d359190614696565b61418c565b005b348015610d4857600080fd5b50610d636004803603810190610d5e91906146e8565b614277565b604051610d709190614c32565b60405180910390f35b348015610d8557600080fd5b50610da06004803603810190610d9b91906146e8565b6142fe565b604051610db89c9b9a99989796959493929190614f71565b60405180910390f35b348015610dcd57600080fd5b50610de86004803603810190610de391906146e8565b614433565b604051610df59190614c32565b60405180910390f35b348015610e0a57600080fd5b50610e256004803603810190610e2091906147a1565b6144bd565b005b348015610e3357600080fd5b50610e3c614526565b604051610e499190614c32565b60405180910390f35b600081610e5e81612a3a565b610e9d576040517f08c379a0000000000000000000000000000000000000000000000000000000008152600401610e9490614d7e565b60405180910390fd5b600a600084815260200190815260200160002060060154915050919050565b60008054906101000a900473ffffffffffffffffffffffffffffffffffffffff1681565b81610eea81612a3a565b610f29576040517f08c379a0000000000000000000000000000000000000000000000000000000008152600401610f2090614d7e565b60405180910390fd5b3373ffffffffffffffffffffffffffffffffffffffff166006600083815260200190815260200160002060009054906101000a900473ffffffffffffffffffffffffffffffffffffffff1673ffffffffffffffffffffffffffffffffffffffff1614610fca576040517f08c379a0000000000000000000000000000000000000000000000000000000008152600401610fc190614e5e565b60405180910390fd5b81600a600085815260200190815260200160002060040160006101000a81548173ffffffffffffffffffffffffffffffffffffffff021916908373ffffffffffffffffffffffffffffffffffffffff160217905550505050565b60608161103081612a3a565b61106f576040517f08c379a000000000000000000000000000000000000000000000000000000000815260040161106690614d7e565b60405180910390fd5b6004600084815260200190815260200160002080548060200260200160405190810160405280929190818152602001828054801561110257602002820191906000526020600020905b8160009054906101000a900473ffffffffffffffffffffffffffffffffffffffff1673ffffffffffffffffffffffffffffffffffffffff16815260200190600101908083116110b8575b5050505050915050919050565b60008161111b81612a3a565b61115a576040517f08c379a000000000000000000000000000000000000000000000000000000000815260040161115190614d7e565b60405180910390fd5b600a600084815260200190815260200160002060040160009054906101000a900473ffffffffffffffffffffffffffffffffffffffff16915050919050565b6000826111a581612a3a565b6111e4576040517f08c379a00000000000000000000000000000000000000000000000000000000081526004016111db90614d7e565b60405180910390fd5b60005b60046000868152602001908152602001600020805490508110156112cb578373ffffffffffffffffffffffffffffffffffffffff16600460008781526020019081526020016000208281548110611267577f4e487b7100000000000000000000000000000000000000000000000000000000600052603260045260246000fd5b9060005260206000200160009054906101000a900473ffffffffffffffffffffffffffffffffffffffff1673ffffffffffffffffffffffffffffffffffffffff1614156112b85760019250506112d1565b80806112c390615323565b9150506111e7565b50600091505b5092915050565b3373ffffffffffffffffffffffffffffffffffffffff16600960009054906101000a900473ffffffffffffffffffffffffffffffffffffffff1673ffffffffffffffffffffffffffffffffffffffff1614611368576040517f08c379a000000000000000000000000000000000000000000000000000000000815260040161135f90614dfe565b60405180910390fd5b6001600360008373ffffffffffffffffffffffffffffffffffffffff1673ffffffffffffffffffffffffffffffffffffffff16815260200190815260200160002060006101000a81548160ff02191690831515021790555050565b600460205281600052604060002081815481106113df57600080fd5b906000526020600020016000915091509054906101000a900473ffffffffffffffffffffffffffffffffffffffff1681565b8061141b81612a3a565b61145a576040517f08c379a000000000000000000000000000000000000000000000000000000000815260040161145190614d7e565b60405180910390fd5b3373ffffffffffffffffffffffffffffffffffffffff166006600083815260200190815260200160002060009054906101000a900473ffffffffffffffffffffffffffffffffffffffff1673ffffffffffffffffffffffffffffffffffffffff16146114fb576040517f08c379a00000000000000000000000000000000000000000000000000000000081526004016114f290614e5e565b60405180910390fd5b600a600083815260200190815260200160002060040160009054906101000a900473ffffffffffffffffffffffffffffffffffffffff1673ffffffffffffffffffffffffffffffffffffffff1663e1f21c673033600a6000878152602001908152602001600020600901546040518463ffffffff1660e01b815260040161158493929190614c4d565b602060405180830381600087803b15801561159e57600080fd5b505af11580156115b2573d6000803e3d6000fd5b505050506040513d601f19601f820116820180604052508101906115d691906146bf565b6115df57600080fd5b5050565b60006005600084815260200190815260200160002060008373ffffffffffffffffffffffffffffffffffffffff1673ffffffffffffffffffffffffffffffffffffffff16815260200190815260200160002054905092915050565b8061164881612a3a565b611687576040517f08c379a000000000000000000000000000000000000000000000000000000000815260040161167e90614d7e565b60405180910390fd5b3373ffffffffffffffffffffffffffffffffffffffff166006600083815260200190815260200160002060009054906101000a900473ffffffffffffffffffffffffffffffffffffffff1673ffffffffffffffffffffffffffffffffffffffff1614611728576040517f08c379a000000000000000000000000000000000000000000000000000000000815260040161171f90614e5e565b60405180910390fd5b6040518060400160405280600881526020017f46696e69736865640000000000000000000000000000000000000000000000008152508051906020012061176e836124f8565b80519060200120146117b5576040517f08c379a00000000000000000000000000000000000000000000000000000000081526004016117ac90614d5e565b60405180910390fd5b600a600083815260200190815260200160002060040160009054906101000a900473ffffffffffffffffffffffffffffffffffffffff1673ffffffffffffffffffffffffffffffffffffffff166323b872dd3033600a6000878152602001908152602001600020600901546040518463ffffffff1660e01b815260040161183e93929190614c4d565b602060405180830381600087803b15801561185857600080fd5b505af115801561186c573d6000803e3d6000fd5b505050506040513d601f19601f8201168201806040525081019061189091906146bf565b6118cf576040517f08c379a00000000000000000000000000000000000000000000000000000000081526004016118c690614d1e565b60405180910390fd5b817fd2a14a15b0ceacee292ffd1e875232c4325baa74699d6d67279cac61a640eaf4600a600085815260200190815260200160002060090154600a600086815260200190815260200160002060040160009054906101000a900473ffffffffffffffffffffffffffffffffffffffff1660405161194d929190614ed9565b60405180910390a26000600a6000848152602001908152602001600020600901819055505050565b8061197f81612a3a565b6119be576040517f08c379a00000000000000000000000000000000000000000000000000000000081526004016119b590614d7e565b60405180910390fd5b6000805b6004600084815260200190815260200160002080549050811015611aa5573373ffffffffffffffffffffffffffffffffffffffff16600460008581526020019081526020016000208281548110611a42577f4e487b7100000000000000000000000000000000000000000000000000000000600052603260045260246000fd5b9060005260206000200160009054906101000a900473ffffffffffffffffffffffffffffffffffffffff1673ffffffffffffffffffffffffffffffffffffffff161415611a925760019150611aa5565b8080611a9d90615323565b9150506119c2565b5080611ae6576040517f08c379a0000000000000000000000000000000000000000000000000000000008152600401611add90614d9e565b60405180910390fd5b6040518060400160405280600881526020017f46696e697368656400000000000000000000000000000000000000000000000081525080519060200120611b2c846124f8565b8051906020012014611b73576040517f08c379a0000000000000000000000000000000000000000000000000000000008152600401611b6a90614d5e565b60405180910390fd5b6000611b7e84613fb1565b9050600a600085815260200190815260200160002060050160009054906101000a900473ffffffffffffffffffffffffffffffffffffffff1673ffffffffffffffffffffffffffffffffffffffff166323b872dd3033846040518463ffffffff1660e01b8152600401611bf393929190614c4d565b602060405180830381600087803b158015611c0d57600080fd5b505af1158015611c21573d6000803e3d6000fd5b505050506040513d601f19601f82011682018060405250810190611c4591906146bf565b611c84576040517f08c379a0000000000000000000000000000000000000000000000000000000008152600401611c7b90614d1e565b60405180910390fd5b806005600086815260200190815260200160002060003373ffffffffffffffffffffffffffffffffffffffff1673ffffffffffffffffffffffffffffffffffffffff1681526020019081526020016000206000828254611ce491906151de565b9250508190555080600a6000868152602001908152602001600020600a016000828254611d1191906151de565b9250508190555080600760008681526020019081526020016000206000828254611d3b91906150fd565b92505081905550837f74d693d132dbe07a071ac2e6d043de8ca215aeaa3df9b1150643fd73f202725482600a600088815260200190815260200160002060050160009054906101000a900473ffffffffffffffffffffffffffffffffffffffff16604051611daa929190614ed9565b60405180910390a250505050565b6000600254905090565b600160009054906101000a900473ffffffffffffffffffffffffffffffffffffffff1681565b600081611df481612a3a565b611e33576040517f08c379a0000000000000000000000000000000000000000000000000000000008152600401611e2a90614d7e565b60405180910390fd5b600a6000848152602001908152602001600020600a0154915050919050565b80611e5c81612a3a565b611e9b576040517f08c379a0000000000000000000000000000000000000000000000000000000008152600401611e9290614d7e565b60405180910390fd5b3373ffffffffffffffffffffffffffffffffffffffff166006600083815260200190815260200160002060009054906101000a900473ffffffffffffffffffffffffffffffffffffffff1673ffffffffffffffffffffffffffffffffffffffff1614611f3c576040517f08c379a0000000000000000000000000000000000000000000000000000000008152600401611f3390614e5e565b60405180910390fd5b600a600083815260200190815260200160002060050160009054906101000a900473ffffffffffffffffffffffffffffffffffffffff1673ffffffffffffffffffffffffffffffffffffffff1663e1f21c673033611f9986613fb1565b6040518463ffffffff1660e01b8152600401611fb793929190614c4d565b602060405180830381600087803b158015611fd157600080fd5b505af1158015611fe5573d6000803e3d6000fd5b505050506040513d601f19601f8201168201806040525081019061200991906146bf565b61201257600080fd5b5050565b6000600360003373ffffffffffffffffffffffffffffffffffffffff1673ffffffffffffffffffffffffffffffffffffffff16815260200190815260200160002060009054906101000a900460ff166120a4576040517f08c379a000000000000000000000000000000000000000000000000000000000815260040161209b90614e9e565b60405180910390fd5b60011515600360008673ffffffffffffffffffffffffffffffffffffffff1673ffffffffffffffffffffffffffffffffffffffff16815260200190815260200160002060009054906101000a900460ff16151514612137576040517f08c379a000000000000000000000000000000000000000000000000000000000815260040161212e90614d3e565b60405180910390fd5b8373ffffffffffffffffffffffffffffffffffffffff163373ffffffffffffffffffffffffffffffffffffffff16146121a5576040517f08c379a000000000000000000000000000000000000000000000000000000000815260040161219c90614dbe565b60405180910390fd5b4288116121e7576040517f08c379a00000000000000000000000000000000000000000000000000000000081526004016121de90614dde565b60405180910390fd5b6000600260008154809291906121fc90615323565b9190505590506040518061018001604052808d81526020018c81526020018b81526020018a81526020018973ffffffffffffffffffffffffffffffffffffffff1681526020018873ffffffffffffffffffffffffffffffffffffffff168152602001878152602001858152602001604051806020016040528060008152508152602001600081526020016000815260200160011515815250600a600060025481526020019081526020016000206000820151816000015560208201518160010155604082015181600201556060820151816003015560808201518160040160006101000a81548173ffffffffffffffffffffffffffffffffffffffff021916908373ffffffffffffffffffffffffffffffffffffffff16021790555060a08201518160050160006101000a81548173ffffffffffffffffffffffffffffffffffffffff021916908373ffffffffffffffffffffffffffffffffffffffff16021790555060c0820151816006015560e0820151816007015561010082015181600801908051906020019061239092919061454c565b50610120820151816009015561014082015181600a015561016082015181600b0160006101000a81548160ff0219169083151502179055509050506002547f100694cbad7219bb6b97301c215fcbee2fc7a396f9f7e54e3c9434b6351550648d8d8d8d8d8d8d6040516124099796959493929190614f02565b60405180910390a282600860006002548152602001908152602001600020819055508460066000600254815260200190815260200160002060006101000a81548173ffffffffffffffffffffffffffffffffffffffff021916908373ffffffffffffffffffffffffffffffffffffffff160217905550809150509a9950505050505050505050565b60008161249d81612a3a565b6124dc576040517f08c379a00000000000000000000000000000000000000000000000000000000081526004016124d390614d7e565b60405180910390fd5b6007600084815260200190815260200160002054915050919050565b60608161250481612a3a565b612543576040517f08c379a000000000000000000000000000000000000000000000000000000000815260040161253a90614d7e565b60405180910390fd5b6040518060400160405280600681526020017f506175736564000000000000000000000000000000000000000000000000000081525080519060200120600a60008581526020019081526020016000206008016040516125a39190614c1b565b6040518091039020148061261c57506040518060400160405280600981526020017f43616e63656c6c6564000000000000000000000000000000000000000000000081525080519060200120600a60008581526020019081526020016000206008016040516126129190614c1b565b6040518091039020145b156126c757600a60008481526020019081526020016000206008018054612642906152c0565b80601f016020809104026020016040519081016040528092919081815260200182805461266e906152c0565b80156126bb5780601f10612690576101008083540402835291602001916126bb565b820191906000526020600020905b81548152906001019060200180831161269e57829003601f168201915b505050505091506127d7565b42600a6000858152602001908152602001600020600201541115612722576040518060400160405280600881526020017f5570636f6d696e6700000000000000000000000000000000000000000000000081525091506127d7565b42600a60008581526020019081526020016000206002015410801561275c575042600a600085815260200190815260200160002060030154115b1561279e576040518060400160405280600781526020017f4f6e676f696e670000000000000000000000000000000000000000000000000081525091506127d7565b6040518060400160405280600881526020017f46696e697368656400000000000000000000000000000000000000000000000081525091505b50919050565b6000600a6000838152602001908152602001600020600301549050919050565b8161280781612a3a565b612846576040517f08c379a000000000000000000000000000000000000000000000000000000000815260040161283d90614d7e565b60405180910390fd5b6000805b600460008481526020019081526020016000208054905081101561292d573373ffffffffffffffffffffffffffffffffffffffff166004600085815260200190815260200160002082815481106128ca577f4e487b7100000000000000000000000000000000000000000000000000000000600052603260045260246000fd5b9060005260206000200160009054906101000a900473ffffffffffffffffffffffffffffffffffffffff1673ffffffffffffffffffffffffffffffffffffffff16141561291a576001915061292d565b808061292590615323565b91505061284a565b508061296e576040517f08c379a000000000000000000000000000000000000000000000000000000000815260040161296590614d9e565b60405180910390fd5b600a600085815260200190815260200160002060040160009054906101000a900473ffffffffffffffffffffffffffffffffffffffff1673ffffffffffffffffffffffffffffffffffffffff1663e1f21c673330866040518463ffffffff1660e01b81526004016129e193929190614c4d565b602060405180830381600087803b1580156129fb57600080fd5b505af1158015612a0f573d6000803e3d6000fd5b505050506040513d601f19601f82011682018060405250810190612a3391906146bf565b5050505050565b6000600a6000838152602001908152602001600020600b0160009054906101000a900460ff16612a6b576000612a6e565b60015b9050919050565b600081612a8181612a3a565b612ac0576040517f08c379a0000000000000000000000000000000000000000000000000000000008152600401612ab790614d7e565b60405180910390fd5b600a600084815260200190815260200160002060070154915050919050565b600082612aeb81612a3a565b612b2a576040517f08c379a0000000000000000000000000000000000000000000000000000000008152600401612b2190614d7e565b60405180910390fd5b612b558484600a600088815260200190815260200160002060090154612b5091906150fd565b613796565b600a6000868152602001908152602001600020600a0154101591505092915050565b81612b8181612a3a565b612bc0576040517f08c379a0000000000000000000000000000000000000000000000000000000008152600401612bb790614d7e565b60405180910390fd5b3373ffffffffffffffffffffffffffffffffffffffff166006600083815260200190815260200160002060009054906101000a900473ffffffffffffffffffffffffffffffffffffffff1673ffffffffffffffffffffffffffffffffffffffff1614612c61576040517f08c379a0000000000000000000000000000000000000000000000000000000008152600401612c5890614e5e565b60405180910390fd5b81600a600085815260200190815260200160002060000181905550505050565b60006005600083815260200190815260200160002060003373ffffffffffffffffffffffffffffffffffffffff1673ffffffffffffffffffffffffffffffffffffffff168152602001908152602001600020549050919050565b81612ce581612a3a565b612d24576040517f08c379a0000000000000000000000000000000000000000000000000000000008152600401612d1b90614d7e565b60405180910390fd5b3373ffffffffffffffffffffffffffffffffffffffff166006600083815260200190815260200160002060009054906101000a900473ffffffffffffffffffffffffffffffffffffffff1673ffffffffffffffffffffffffffffffffffffffff1614612dc5576040517f08c379a0000000000000000000000000000000000000000000000000000000008152600401612dbc90614e5e565b60405180910390fd5b60046000848152602001908152602001600020829080600181540180825580915050600190039060005260206000200160009091909190916101000a81548173ffffffffffffffffffffffffffffffffffffffff021916908373ffffffffffffffffffffffffffffffffffffffff160217905550505050565b60076020528060005260406000206000915090505481565b81612e6081612a3a565b612e9f576040517f08c379a0000000000000000000000000000000000000000000000000000000008152600401612e9690614d7e565b60405180910390fd5b3373ffffffffffffffffffffffffffffffffffffffff166006600083815260200190815260200160002060009054906101000a900473ffffffffffffffffffffffffffffffffffffffff1673ffffffffffffffffffffffffffffffffffffffff1614612f40576040517f08c379a0000000000000000000000000000000000000000000000000000000008152600401612f3790614e5e565b60405180910390fd5b81600a600085815260200190815260200160002060010181905550505050565b81612f6a81612a3a565b612fa9576040517f08c379a0000000000000000000000000000000000000000000000000000000008152600401612fa090614d7e565b60405180910390fd5b3373ffffffffffffffffffffffffffffffffffffffff166006600083815260200190815260200160002060009054906101000a900473ffffffffffffffffffffffffffffffffffffffff1673ffffffffffffffffffffffffffffffffffffffff161461304a576040517f08c379a000000000000000000000000000000000000000000000000000000000815260040161304190614e5e565b60405180910390fd5b81600a600085815260200190815260200160002060030181905550505050565b8161307481612a3a565b6130b3576040517f08c379a00000000000000000000000000000000000000000000000000000000081526004016130aa90614d7e565b60405180910390fd5b3373ffffffffffffffffffffffffffffffffffffffff166006600083815260200190815260200160002060009054906101000a900473ffffffffffffffffffffffffffffffffffffffff1673ffffffffffffffffffffffffffffffffffffffff1614613154576040517f08c379a000000000000000000000000000000000000000000000000000000000815260040161314b90614e5e565b60405180910390fd5b81600a6000858152602001908152602001600020600801908051906020019061317e92919061454c565b50505050565b8161318e81612a3a565b6131cd576040517f08c379a00000000000000000000000000000000000000000000000000000000081526004016131c490614d7e565b60405180910390fd5b3373ffffffffffffffffffffffffffffffffffffffff166006600083815260200190815260200160002060009054906101000a900473ffffffffffffffffffffffffffffffffffffffff1673ffffffffffffffffffffffffffffffffffffffff161461326e576040517f08c379a000000000000000000000000000000000000000000000000000000000815260040161326590614e5e565b60405180910390fd5b600860008481526020019081526020016000205461328c8484613796565b6132969190615184565b34146132d7576040517f08c379a00000000000000000000000000000000000000000000000000000000081526004016132ce90614e3e565b60405180910390fd5b600a600084815260200190815260200160002060050160009054906101000a900473ffffffffffffffffffffffffffffffffffffffff1673ffffffffffffffffffffffffffffffffffffffff1663e1f21c673330856040518463ffffffff1660e01b815260040161334a93929190614c4d565b602060405180830381600087803b15801561336457600080fd5b505af1158015613378573d6000803e3d6000fd5b505050506040513d601f19601f8201168201806040525081019061339c91906146bf565b6133db576040517f08c379a00000000000000000000000000000000000000000000000000000000081526004016133d290614e7e565b60405180910390fd5b600a600084815260200190815260200160002060050160009054906101000a900473ffffffffffffffffffffffffffffffffffffffff1673ffffffffffffffffffffffffffffffffffffffff166323b872dd3330856040518463ffffffff1660e01b815260040161344e93929190614c4d565b602060405180830381600087803b15801561346857600080fd5b505af115801561347c573d6000803e3d6000fd5b505050506040513d601f19601f820116820180604052508101906134a091906146bf565b6134df576040517f08c379a00000000000000000000000000000000000000000000000000000000081526004016134d690614d1e565b60405180910390fd5b81600a6000858152602001908152602001600020600a01600082825461350591906150fd565b92505081905550827fc06980f86b5925e67b4408946587f60398c163849794ef282aec1d548890bacd83600a600087815260200190815260200160002060050160009054906101000a900473ffffffffffffffffffffffffffffffffffffffff16604051613574929190614ed9565b60405180910390a2505050565b60008161358d81612a3a565b6135cc576040517f08c379a00000000000000000000000000000000000000000000000000000000081526004016135c390614d7e565b60405180910390fd5b6135d583612a3a565b613614576040517f08c379a000000000000000000000000000000000000000000000000000000000815260040161360b90614d7e565b60405180910390fd5b600a600084815260200190815260200160002060000154915050919050565b60036020528060005260406000206000915054906101000a900460ff1681565b60066020528060005260406000206000915054906101000a900473ffffffffffffffffffffffffffffffffffffffff1681565b60025481565b8161369681612a3a565b6136d5576040517f08c379a00000000000000000000000000000000000000000000000000000000081526004016136cc90614d7e565b60405180910390fd5b3373ffffffffffffffffffffffffffffffffffffffff166006600083815260200190815260200160002060009054906101000a900473ffffffffffffffffffffffffffffffffffffffff1673ffffffffffffffffffffffffffffffffffffffff1614613776576040517f08c379a000000000000000000000000000000000000000000000000000000000815260040161376d90614e5e565b60405180910390fd5b81600a600085815260200190815260200160002060060181905550505050565b60006064600a600085815260200190815260200160002060070154836137bc9190615184565b6137c69190615153565b905092915050565b6000816137da81612a3a565b613819576040517f08c379a000000000000000000000000000000000000000000000000000000000815260040161381090614d7e565b60405180910390fd5b600a600084815260200190815260200160002060020154915050919050565b60008161384481612a3a565b613883576040517f08c379a000000000000000000000000000000000000000000000000000000000815260040161387a90614d7e565b60405180910390fd5b6008600084815260200190815260200160002054915050919050565b6005602052816000526040600020602052806000526040600020600091509150505481565b6000816138d081612a3a565b61390f576040517f08c379a000000000000000000000000000000000000000000000000000000000815260040161390690614d7e565b60405180910390fd5b600a600084815260200190815260200160002060010154915050919050565b6000804290508091505090565b8161394581612a3a565b613984576040517f08c379a000000000000000000000000000000000000000000000000000000000815260040161397b90614d7e565b60405180910390fd5b3373ffffffffffffffffffffffffffffffffffffffff166006600083815260200190815260200160002060009054906101000a900473ffffffffffffffffffffffffffffffffffffffff1673ffffffffffffffffffffffffffffffffffffffff1614613a25576040517f08c379a0000000000000000000000000000000000000000000000000000000008152600401613a1c90614e5e565b60405180910390fd5b81600a600085815260200190815260200160002060050160006101000a81548173ffffffffffffffffffffffffffffffffffffffff021916908373ffffffffffffffffffffffffffffffffffffffff160217905550505050565b600081613a8b81612a3a565b613aca576040517f08c379a0000000000000000000000000000000000000000000000000000000008152600401613ac190614d7e565b60405180910390fd5b600a600084815260200190815260200160002060090154915050919050565b60086020528060005260406000206000915090505481565b81613b0b81612a3a565b613b4a576040517f08c379a0000000000000000000000000000000000000000000000000000000008152600401613b4190614d7e565b60405180910390fd5b6000805b6004600084815260200190815260200160002080549050811015613c31573373ffffffffffffffffffffffffffffffffffffffff16600460008581526020019081526020016000208281548110613bce577f4e487b7100000000000000000000000000000000000000000000000000000000600052603260045260246000fd5b9060005260206000200160009054906101000a900473ffffffffffffffffffffffffffffffffffffffff1673ffffffffffffffffffffffffffffffffffffffff161415613c1e5760019150613c31565b8080613c2990615323565b915050613b4e565b5080613c72576040517f08c379a0000000000000000000000000000000000000000000000000000000008152600401613c6990614d9e565b60405180910390fd5b6040518060400160405280600781526020017f4f6e676f696e670000000000000000000000000000000000000000000000000081525080519060200120613cb8856124f8565b8051906020012014613cff576040517f08c379a0000000000000000000000000000000000000000000000000000000008152600401613cf690614e1e565b60405180910390fd5b600860008581526020019081526020016000205483613d1e9190615184565b3414613d5f576040517f08c379a0000000000000000000000000000000000000000000000000000000008152600401613d5690614e3e565b60405180910390fd5b600a60008581526020019081526020016000206000015483600a600087815260200190815260200160002060090154613d9891906150fd565b10613dd8576040517f08c379a0000000000000000000000000000000000000000000000000000000008152600401613dcf90614cfe565b60405180910390fd5b613de28484612adf565b613deb57600080fd5b600a600085815260200190815260200160002060040160009054906101000a900473ffffffffffffffffffffffffffffffffffffffff1673ffffffffffffffffffffffffffffffffffffffff166323b872dd3330866040518463ffffffff1660e01b8152600401613e5e93929190614c4d565b602060405180830381600087803b158015613e7857600080fd5b505af1158015613e8c573d6000803e3d6000fd5b505050506040513d601f19601f82011682018060405250810190613eb091906146bf565b613eb957600080fd5b826005600086815260200190815260200160002060003373ffffffffffffffffffffffffffffffffffffffff1673ffffffffffffffffffffffffffffffffffffffff1681526020019081526020016000208190555082600a60008681526020019081526020016000206009016000828254613f3491906150fd565b92505081905550837f05f5283ac4911ec5ae7641c5acf0cbdb115dba2392aa2ca1e8a16eda7067c7b684600a600088815260200190815260200160002060050160009054906101000a900473ffffffffffffffffffffffffffffffffffffffff16604051613fa3929190614ed9565b60405180910390a250505050565b600081613fbd81612a3a565b613ffc576040517f08c379a0000000000000000000000000000000000000000000000000000000008152600401613ff390614d7e565b60405180910390fd5b6064600a6000858152602001908152602001600020600701546005600086815260200190815260200160002060003373ffffffffffffffffffffffffffffffffffffffff1673ffffffffffffffffffffffffffffffffffffffff168152602001908152602001600020546140709190615184565b61407a9190615153565b915050919050565b8161408c81612a3a565b6140cb576040517f08c379a00000000000000000000000000000000000000000000000000000000081526004016140c290614d7e565b60405180910390fd5b3373ffffffffffffffffffffffffffffffffffffffff166006600083815260200190815260200160002060009054906101000a900473ffffffffffffffffffffffffffffffffffffffff1673ffffffffffffffffffffffffffffffffffffffff161461416c576040517f08c379a000000000000000000000000000000000000000000000000000000000815260040161416390614e5e565b60405180910390fd5b81600a600085815260200190815260200160002060020181905550505050565b3373ffffffffffffffffffffffffffffffffffffffff16600960009054906101000a900473ffffffffffffffffffffffffffffffffffffffff1673ffffffffffffffffffffffffffffffffffffffff161461421c576040517f08c379a000000000000000000000000000000000000000000000000000000000815260040161421390614dfe565b60405180910390fd5b6000600360008373ffffffffffffffffffffffffffffffffffffffff1673ffffffffffffffffffffffffffffffffffffffff16815260200190815260200160002060006101000a81548160ff02191690831515021790555050565b60008161428381612a3a565b6142c2576040517f08c379a00000000000000000000000000000000000000000000000000000000081526004016142b990614d7e565b60405180910390fd5b6006600084815260200190815260200160002060009054906101000a900473ffffffffffffffffffffffffffffffffffffffff16915050919050565b600a6020528060005260406000206000915090508060000154908060010154908060020154908060030154908060040160009054906101000a900473ffffffffffffffffffffffffffffffffffffffff16908060050160009054906101000a900473ffffffffffffffffffffffffffffffffffffffff1690806006015490806007015490806008018054614391906152c0565b80601f01602080910402602001604051908101604052809291908181526020018280546143bd906152c0565b801561440a5780601f106143df5761010080835404028352916020019161440a565b820191906000526020600020905b8154815290600101906020018083116143ed57829003601f168201915b50505050509080600901549080600a01549080600b0160009054906101000a900460ff1690508c565b60008161443f81612a3a565b61447e576040517f08c379a000000000000000000000000000000000000000000000000000000000815260040161447590614d7e565b60405180910390fd5b600a600084815260200190815260200160002060050160009054906101000a900473ffffffffffffffffffffffffffffffffffffffff16915050919050565b816144c781612a3a565b614506576040517f08c379a00000000000000000000000000000000000000000000000000000000081526004016144fd90614d7e565b60405180910390fd5b81600a600085815260200190815260200160002060070181905550505050565b600960009054906101000a900473ffffffffffffffffffffffffffffffffffffffff1681565b828054614558906152c0565b90600052602060002090601f01602090048101928261457a57600085556145c1565b82601f1061459357805160ff19168380011785556145c1565b828001600101855582156145c1579182015b828111156145c05782518255916020019190600101906145a5565b5b5090506145ce91906145d2565b5090565b5b808211156145eb5760008160009055506001016145d3565b5090565b60006146026145fd84615057565b615032565b90508281526020810184848401111561461a57600080fd5b61462584828561527e565b509392505050565b60008135905061463c816156c3565b92915050565b600081519050614651816156da565b92915050565b600082601f83011261466857600080fd5b81356146788482602086016145ef565b91505092915050565b600081359050614690816156f1565b92915050565b6000602082840312156146a857600080fd5b60006146b68482850161462d565b91505092915050565b6000602082840312156146d157600080fd5b60006146df84828501614642565b91505092915050565b6000602082840312156146fa57600080fd5b600061470884828501614681565b91505092915050565b6000806040838503121561472457600080fd5b600061473285828601614681565b92505060206147438582860161462d565b9150509250929050565b6000806040838503121561476057600080fd5b600061476e85828601614681565b925050602083013567ffffffffffffffff81111561478b57600080fd5b61479785828601614657565b9150509250929050565b600080604083850312156147b457600080fd5b60006147c285828601614681565b92505060206147d385828601614681565b9150509250929050565b6000806000806000806000806000806101408b8d0312156147fd57600080fd5b600061480b8d828e01614681565b9a5050602061481c8d828e01614681565b995050604061482d8d828e01614681565b985050606061483e8d828e01614681565b975050608061484f8d828e0161462d565b96505060a06148608d828e0161462d565b95505060c06148718d828e01614681565b94505060e06148828d828e0161462d565b9350506101006148948d828e01614681565b9250506101206148a68d828e01614681565b9150509295989b9194979a5092959850565b60006148c483836148d0565b60208301905092915050565b6148d981615212565b82525050565b6148e881615212565b82525050565b60006148f9826150ad565b61490381856150d0565b935061490e83615088565b8060005b8381101561493f57815161492688826148b8565b9750614931836150c3565b925050600181019050614912565b5085935050505092915050565b61495581615224565b82525050565b60008154614968816152c0565b61497281866150e1565b9450600182166000811461498d576001811461499e576149d1565b60ff198316865281860193506149d1565b6149a785615098565b60005b838110156149c9578154818901526001820191506020810190506149aa565b838801955050505b50505092915050565b6149e38161525a565b82525050565b60006149f4826150b8565b6149fe81856150ec565b9350614a0e81856020860161528d565b614a1781615428565b840191505092915050565b6000614a2f600e836150ec565b9150614a3a82615439565b602082019050919050565b6000614a52600f836150ec565b9150614a5d82615462565b602082019050919050565b6000614a756017836150ec565b9150614a808261548b565b602082019050919050565b6000614a986009836150ec565b9150614aa3826154b4565b602082019050919050565b6000614abb600b836150ec565b9150614ac6826154dd565b602082019050919050565b6000614ade6009836150ec565b9150614ae982615506565b602082019050919050565b6000614b016028836150ec565b9150614b0c8261552f565b604082019050919050565b6000614b246026836150ec565b9150614b2f8261557e565b604082019050919050565b6000614b476006836150ec565b9150614b52826155cd565b602082019050919050565b6000614b6a600b836150ec565b9150614b75826155f6565b602082019050919050565b6000614b8d6011836150ec565b9150614b988261561f565b602082019050919050565b6000614bb0600a836150ec565b9150614bbb82615648565b602082019050919050565b6000614bd3600f836150ec565b9150614bde82615671565b602082019050919050565b6000614bf6600c836150ec565b9150614c018261569a565b602082019050919050565b614c1581615250565b82525050565b6000614c27828461495b565b915081905092915050565b6000602082019050614c4760008301846148df565b92915050565b6000606082019050614c6260008301866148df565b614c6f60208301856148df565b614c7c6040830184614c0c565b949350505050565b60006020820190508181036000830152614c9e81846148ee565b905092915050565b6000602082019050614cbb600083018461494c565b92915050565b6000602082019050614cd660008301846149da565b92915050565b60006020820190508181036000830152614cf681846149e9565b905092915050565b60006020820190508181036000830152614d1781614a22565b9050919050565b60006020820190508181036000830152614d3781614a45565b9050919050565b60006020820190508181036000830152614d5781614a68565b9050919050565b60006020820190508181036000830152614d7781614a8b565b9050919050565b60006020820190508181036000830152614d9781614aae565b9050919050565b60006020820190508181036000830152614db781614ad1565b9050919050565b60006020820190508181036000830152614dd781614af4565b9050919050565b60006020820190508181036000830152614df781614b17565b9050919050565b60006020820190508181036000830152614e1781614b3a565b9050919050565b60006020820190508181036000830152614e3781614b5d565b9050919050565b60006020820190508181036000830152614e5781614b80565b9050919050565b60006020820190508181036000830152614e7781614ba3565b9050919050565b60006020820190508181036000830152614e9781614bc6565b9050919050565b60006020820190508181036000830152614eb781614be9565b9050919050565b6000602082019050614ed36000830184614c0c565b92915050565b6000604082019050614eee6000830185614c0c565b614efb60208301846148df565b9392505050565b600060e082019050614f17600083018a614c0c565b614f246020830189614c0c565b614f316040830188614c0c565b614f3e6060830187614c0c565b614f4b60808301866148df565b614f5860a08301856148df565b614f6560c0830184614c0c565b98975050505050505050565b600061018082019050614f87600083018f614c0c565b614f94602083018e614c0c565b614fa1604083018d614c0c565b614fae606083018c614c0c565b614fbb608083018b6148df565b614fc860a083018a6148df565b614fd560c0830189614c0c565b614fe260e0830188614c0c565b818103610100830152614ff581876149e9565b9050615005610120830186614c0c565b615013610140830185614c0c565b61502161016083018461494c565b9d9c50505050505050505050505050565b600061503c61504d565b905061504882826152f2565b919050565b6000604051905090565b600067ffffffffffffffff821115615072576150716153f9565b5b61507b82615428565b9050602081019050919050565b6000819050602082019050919050565b60008190508160005260206000209050919050565b600081519050919050565b600081519050919050565b6000602082019050919050565b600082825260208201905092915050565b600081905092915050565b600082825260208201905092915050565b600061510882615250565b915061511383615250565b9250827fffffffffffffffffffffffffffffffffffffffffffffffffffffffffffffffff038211156151485761514761536c565b5b828201905092915050565b600061515e82615250565b915061516983615250565b9250826151795761517861539b565b5b828204905092915050565b600061518f82615250565b915061519a83615250565b9250817fffffffffffffffffffffffffffffffffffffffffffffffffffffffffffffffff04831182151516156151d3576151d261536c565b5b828202905092915050565b60006151e982615250565b91506151f483615250565b9250828210156152075761520661536c565b5b828203905092915050565b600061521d82615230565b9050919050565b60008115159050919050565b600073ffffffffffffffffffffffffffffffffffffffff82169050919050565b6000819050919050565b60006152658261526c565b9050919050565b600061527782615230565b9050919050565b82818337600083830152505050565b60005b838110156152ab578082015181840152602081019050615290565b838111156152ba576000848401525b50505050565b600060028204905060018216806152d857607f821691505b602082108114156152ec576152eb6153ca565b5b50919050565b6152fb82615428565b810181811067ffffffffffffffff8211171561531a576153196153f9565b5b80604052505050565b600061532e82615250565b91507fffffffffffffffffffffffffffffffffffffffffffffffffffffffffffffffff8214156153615761536061536c565b5b600182019050919050565b7f4e487b7100000000000000000000000000000000000000000000000000000000600052601160045260246000fd5b7f4e487b7100000000000000000000000000000000000000000000000000000000600052601260045260246000fd5b7f4e487b7100000000000000000000000000000000000000000000000000000000600052602260045260246000fd5b7f4e487b7100000000000000000000000000000000000000000000000000000000600052604160045260246000fd5b6000601f19601f8301169050919050565b7f4f76657253756273637269626564000000000000000000000000000000000000600082015250565b7f5472616e73666572206661696c65640000000000000000000000000000000000600082015250565b7f4d616e61676572206e6f742077686974656c6973746564000000000000000000600082015250565b7f2146696e69736865640000000000000000000000000000000000000000000000600082015250565b7f21706f6f6c657869737473000000000000000000000000000000000000000000600082015250565b7f21696e766573746f720000000000000000000000000000000000000000000000600082015250565b7f4f6e6c7920416363657373204d616e61676572732063616e20696e697469617460008201527f65206120706f6f6c000000000000000000000000000000000000000000000000602082015250565b7f61756374696f6e20656e642064617465206d75737420626520696e207468652060008201527f6675747572650000000000000000000000000000000000000000000000000000602082015250565b7f2161646d696e0000000000000000000000000000000000000000000000000000600082015250565b7f21506f6f6c616374697665000000000000000000000000000000000000000000600082015250565b7f496e737566666963656e742076616c7565000000000000000000000000000000600082015250565b7f21706f6f6c6f776e657200000000000000000000000000000000000000000000600082015250565b7f417070726f76616c206661696c65640000000000000000000000000000000000600082015250565b7f21706f6f6c6d616e616765720000000000000000000000000000000000000000600082015250565b6156cc81615212565b81146156d757600080fd5b50565b6156e381615224565b81146156ee57600080fd5b50565b6156fa81615250565b811461570557600080fd5b5056fea2646970667358221220df07e1e1769290df0b7a295b132a5ddbdee5c4467200516404430a8177a65a6f64736f6c63430008010033",
  "immutableReferences": {},
  "source": "//SPDX-License-Identifier: Unlicense\npragma solidity >=0.8.1;\n\nimport \"./PoolToken.sol\";\n\ncontract IDO {\n   \n  constructor() {\n    adminAddress = msg.sender;\n  }\n    \n  PoolToken public projectTokenInstance;\n  PoolToken public mainTokenInstance;\n\n  uint256 public poolCounter;\n\n  mapping(address => bool) public managerWhiteList;\n  mapping(uint256 => address[]) public whiteList;\n  mapping(uint256 => mapping(address => uint256)) public amountList;\n  mapping(uint256 => address) public accessManager;\n  mapping(uint256 => uint256) public tokensSold;\n  mapping(uint256 => uint256) public tokenPrice;\n  address public adminAddress;\n\n    event NewPool(\n        uint256 indexed poolId,\n        uint256 hardCap,\n        uint256 softCap,\n        uint256 startDate,\n        uint256 endDate,\n        address mainToken,\n        address projectToken,\n        uint256 minAllocationPerUser\n    );\n\n    event PoolFunded(\n        uint256 indexed poolId,\n        uint256 amount,\n        address token\n    );\n\n    event NewInvestment(\n        uint256 indexed poolId,\n        uint256 amount,\n        address token\n    );\n\n    event FundsRetrieved(\n        uint256 indexed poolId,\n        uint256 amount,\n        address token\n    );\n\n    event TokensClaimed(\n        uint256 indexed poolId,\n        uint256 amount,\n        address token\n    );\n  \n    modifier onlyAdmin() {\n        require(adminAddress == msg.sender, '!admin');\n        _;\n    }\n\n    modifier onlyPoolManager()  {\n        require( managerWhiteList[msg.sender], '!poolmanager');\n        _;\n    }\n    \n    modifier onlyPoolOwner(uint256 idPool)  {\n        require( poolExists(idPool), '!poolexists' );\n        require( accessManager[idPool] == msg.sender, '!poolowner');\n        _;\n    }\n\n    modifier onlyInvestors(uint256 idPool)  {\n        require( poolExists(idPool), '!poolexists' );\n        bool isInvestor = false;\n        for( uint i = 0; i < whiteList[idPool].length; i++ ){\n            \n            if ( whiteList[idPool][i] == msg.sender ){\n                isInvestor = true;\n                break;\n            }\n        }\n        require( isInvestor, '!investor');\n        _;\n    }\n\n    modifier onlyExists(uint256 idPool) {\n        require(poolExists(idPool), '!poolexists');\n        _;\n    }\n\n    function poolExists(uint256 idPool) public view returns(bool) {\n        return ( poolData[idPool].created ? true : false );\n    }\n  \n  mapping(uint256 => PoolData) public poolData;\n\n  struct PoolData {\n        uint256 hardCap;\n        uint256 softCap;\n        uint256 startDate;\n        uint256 endDate;\n        address mainToken;\n        address projectToken;\n        uint256 minAllocationPerUser;\n        uint256 exchangeRate;\n        string  status;\n        uint256 totalInvested;\n        uint256 totalProjectTokens;\n        bool    created;\n  }\n\n    function addManager(address _accessManagerContract) external onlyAdmin() {\n        managerWhiteList[_accessManagerContract] = true;\n    }\n\n    function delistManager(address _accessManagerContract) external onlyAdmin() {\n        managerWhiteList[_accessManagerContract] = false;\n    }\n\n  function initiatePool(\n        uint256 hardCap,\n        uint256 softCap,\n        uint256 startDate,\n        uint256 endDate,\n        address mainToken,\n        address projectToken,\n        uint256 minAllocationPerUser,\n        address _accessManagerContract,\n        uint256 exchangeRate,\n        uint256 _tokenPrice\n       ) external onlyPoolManager() returns (uint) {\n        \n        require( managerWhiteList[_accessManagerContract] == true, \"Manager not whitelisted\");\n        require( msg.sender == _accessManagerContract, \"Only Access Managers can initiate a pool\"); \n        \n        require(\n            endDate > block.timestamp,\n            \"auction end date must be in the future\"\n        );\n        \n        uint poolId = poolCounter++;\n   \n        poolData[poolCounter] = PoolData(\n            hardCap,\n            softCap,\n            startDate,\n            endDate,\n            mainToken,\n            projectToken,\n            minAllocationPerUser,\n            exchangeRate,\n            \"\",\n            0,\n            0,\n\n            true\n        );\n\n        emit NewPool(\n            poolCounter,\n            hardCap,\n            softCap,\n            startDate,\n            endDate,\n            mainToken,\n            projectToken,\n            minAllocationPerUser\n        );\n        tokenPrice[poolCounter] = _tokenPrice;\n        accessManager[poolCounter] = _accessManagerContract;\n        return poolId;\n    }\n\n    function getPoolId ()\n        public view returns(uint256) {\n            return poolCounter; \n    }\n\n    function setHardCap(uint256 poolId,uint256 _hardCap) external onlyPoolOwner(poolId) {\n        poolData[poolId].hardCap = _hardCap; \n    }\n\n    function getHardCap(uint256 poolId) public view onlyExists(poolId) returns(uint256) {\n        require(poolExists(poolId), '!poolexists');       \n\n        return poolData[poolId].hardCap; \n    }\n\n    function setSoftCap(uint256 poolId,uint256 _softCap) external onlyPoolOwner(poolId) {\n        poolData[poolId].softCap = _softCap; \n    }\n\n    function getSoftCap(uint256 poolId) public view onlyExists(poolId) returns(uint256) {\n\n        return poolData[poolId].softCap; \n    }\n\n    function setStartDate(uint256 poolId,uint256 _startDate) external onlyPoolOwner(poolId) {\n        poolData[poolId].startDate = _startDate; \n    }\n\n    function getStartDate(uint256 poolId) public view onlyExists(poolId) returns(uint256) {\n        return poolData[poolId].startDate; \n    }\n \n    function setEndDate(uint256 poolId,uint256 _endDate) external onlyPoolOwner(poolId) {\n        poolData[poolId].endDate = _endDate; \n    }\n\n    function getEndDate(uint256 poolId) public view returns(uint256) {\n        return poolData[poolId].endDate; \n    }\n\n    function setMainToken(uint256 poolId,address  _tokenAddress) external onlyPoolOwner(poolId) {\n        poolData[poolId].mainToken = _tokenAddress; \n    }\n\n    function getMainToken(uint256 poolId) public view onlyExists(poolId) returns(address) {\n        return poolData[poolId].mainToken; \n    }\n\n    function setProjectToken(uint256 poolId,address _tokenAddress) external onlyPoolOwner(poolId) {\n        poolData[poolId].projectToken = _tokenAddress; \n    }\n\n    function getProjectToken(uint256 poolId) public view onlyExists(poolId) returns(address) {\n        return poolData[poolId].projectToken; \n    }\n\n    function setMinAllocation(uint256 poolId,uint256 _minAllocationPerUser) external onlyPoolOwner(poolId) {\n        poolData[poolId].minAllocationPerUser = _minAllocationPerUser; \n    }\n\n    function getMinAllocation(uint256 poolId) public view onlyExists(poolId) returns(uint256) {\n        return poolData[poolId].minAllocationPerUser; \n    }\n\n    function getAdminAddress(uint256 poolId) public view onlyExists(poolId) returns(address) {\n        return accessManager[poolId]; \n    }\n\n    function getExchangeRate(uint256 poolId) public view onlyExists(poolId) returns(uint256) {\n        return poolData[poolId].exchangeRate; \n    }\n\n    function setExchangeRate(uint256 poolId, uint256 newRate) public onlyExists(poolId) {\n        poolData[poolId].exchangeRate = newRate; \n    }\n\n    function setStatus(uint256 poolId,string memory _status) external onlyPoolOwner(poolId) {\n        poolData[poolId].status = _status; \n    }\n\n    function getStatus(uint256 poolId) public view onlyExists(poolId) returns(string memory) {\n        if ( keccak256(bytes(poolData[poolId].status)) == keccak256(bytes('Paused')) || keccak256(bytes(poolData[poolId].status)) == keccak256(bytes('Cancelled')) ){\n            return poolData[poolId].status;\n        } \n        if ( poolData[poolId].startDate > block.timestamp ){\n            return \"Upcoming\"        ;\n        } else  if ( poolData[poolId].startDate < block.timestamp && poolData[poolId].endDate > block.timestamp ) {\n            return \"Ongoing\";\n        } else  return \"Finished\";\n    }\n   \n    function whiteListForPool(uint256 poolId, address investor) external onlyPoolOwner(poolId) {\n        whiteList[poolId].push(investor);\n    }\n\n    function isWhiteListedForPool(uint256 poolId,address investor) public view onlyExists(poolId) returns (bool) {\n        for ( uint i = 0; i < whiteList[poolId].length; i++ ){\n             if ( whiteList[poolId][i] == investor ){\n               return true;\n             }\n         }\n         return false;\n    }\n\n    function approve(uint256 poolId, uint256 _numberOfTokens) payable external  onlyInvestors(poolId) {\n        PoolToken(poolData[poolId].mainToken).approve(msg.sender,address(this),_numberOfTokens );\n    }\n\n    function invest(uint256 poolId, uint256 _numberOfTokens) payable external  onlyInvestors(poolId) {\n        require(keccak256(bytes(getStatus(poolId))) == keccak256(bytes('Ongoing')), '!Poolactive' );\n        require( msg.value == ( _numberOfTokens * tokenPrice[poolId] ), 'Insufficent value' );\n        require( ( poolData[poolId].totalInvested + _numberOfTokens ) < poolData[poolId].hardCap, 'OverSubscribed' );\n        require( canPayout( poolId, _numberOfTokens ) );\n        require( PoolToken(poolData[poolId].mainToken).transferFrom(msg.sender, address(this), _numberOfTokens ) );\n        amountList[poolId][msg.sender] = _numberOfTokens;\n        poolData[poolId].totalInvested += _numberOfTokens;\n        emit NewInvestment(poolId,_numberOfTokens,poolData[poolId].projectToken);\n    }\n\n    function getAmountInvested(uint256 poolId) public view returns(uint256) {\n        return amountList[poolId][msg.sender]; \n    }\n\n    function getAmountInvestedByAddress(uint256 poolId, address investor) public view returns(uint256) {\n        return amountList[poolId][investor]; \n    }\n\n    function getExchangeAmount(uint256 poolId) public view onlyExists(poolId) returns(uint256) {\n        return ( amountList[poolId][msg.sender] * poolData[poolId].exchangeRate ) / 100; \n    }\n\n    function getExchangeAmountFor(uint256 poolId, uint256 amount) public view returns(uint256) {\n        return ( amount * poolData[poolId].exchangeRate ) / 100; \n    }\n\n    function getTotalInvested(uint256 poolId) public view onlyExists(poolId) returns(uint256) {\n        return poolData[poolId].totalInvested; \n    }\n\n    function getTokenPrice(uint256 poolId) public view onlyExists(poolId) returns(uint256) {\n        return tokenPrice[poolId]; \n    }\n\n    function approveClaim(uint256 poolId) external onlyPoolOwner(poolId){\n        require(PoolToken(poolData[poolId].projectToken).approve( address(this), msg.sender, getExchangeAmount(poolId) ));\n    }\n\n    function claim(uint256 poolId) payable external  onlyInvestors(poolId) {\n       require(keccak256(bytes(getStatus(poolId))) == keccak256(bytes('Finished')), '!Finished' );\n       uint256 claimAmount =  getExchangeAmount(poolId);\n       require( PoolToken(poolData[poolId].projectToken).transferFrom( address(this), msg.sender, claimAmount ), 'Transfer failed' );\n       amountList[poolId][msg.sender] -= claimAmount;\n       poolData[poolId].totalProjectTokens -= claimAmount;\n       tokensSold[poolId] += claimAmount;\n       emit TokensClaimed(poolId,claimAmount,poolData[poolId].projectToken);\n    }\n\n    function getTokensSold(uint256 poolId) public view onlyExists(poolId) returns (uint256){\n        return  tokensSold[poolId]; \n    }\n\n    function getInvestors(uint256 poolId) public view onlyExists(poolId) returns (address[] memory){\n        return  whiteList[poolId]; \n    }\n\n    function getProjectTokenTotal(uint256 poolId) public view onlyExists(poolId) returns (uint256){\n        return  poolData[poolId].totalProjectTokens; \n    }\n\n    function getBlockTimeStamp() public view returns(uint256) {\n        uint256 time = block.timestamp;\n        return time; \n    }\n\n    function sendProjectTokens(uint256 poolId, uint256 _numberOfTokens) payable external  onlyPoolOwner(poolId) {\n        require( msg.value == ( getExchangeAmountFor(poolId,_numberOfTokens ) * tokenPrice[poolId] ), 'Insufficent value' );\n        require( PoolToken(poolData[poolId].projectToken).approve(msg.sender, address(this), _numberOfTokens ), 'Approval failed' );\n        require( PoolToken(poolData[poolId].projectToken).transferFrom(msg.sender, address(this), _numberOfTokens ), 'Transfer failed' );\n        poolData[poolId].totalProjectTokens += _numberOfTokens;\n        emit PoolFunded(poolId,_numberOfTokens,poolData[poolId].projectToken);\n    }\n\n    function canPayout(uint256 poolId, uint256 additionalTokens) public view onlyExists(poolId) returns (bool){\n        return poolData[poolId].totalProjectTokens >= ( getExchangeAmountFor(poolId,poolData[poolId].totalInvested + additionalTokens) );\n    }\n\n    function approveRetrieve(uint256 poolId) external onlyPoolOwner(poolId){\n        require(PoolToken(poolData[poolId].mainToken).approve( address(this), msg.sender, poolData[poolId].totalInvested ));\n    }\n\n    function retrieveMainTokens(uint256 poolId) payable external  onlyPoolOwner(poolId) {\n        require(keccak256(bytes(getStatus(poolId))) == keccak256(bytes('Finished')), '!Finished' );\n        require( PoolToken(poolData[poolId].mainToken).transferFrom( address(this), msg.sender, poolData[poolId].totalInvested ), 'Transfer failed' );\n        emit FundsRetrieved(poolId,poolData[poolId].totalInvested,poolData[poolId].mainToken);\n        poolData[poolId].totalInvested = 0;\n    }\n\n}\n",
  "sourcePath": "/home/danielo/Development/IDO-Platform/contracts/IDO.sol",
  "compiler": {
    "name": "solc",
    "version": "0.8.1+commit.df193b15.Emscripten.clang"
  },
  "schemaVersion": "3.4.2",
  "updatedAt": "2021-08-10T18:19:20.018Z",
  "devdoc": {
    "kind": "dev",
    "methods": {},
    "version": 1
  },
  "userdoc": {
    "kind": "user",
    "methods": {},
    "version": 1
  }
}