{
  "contractName": "IDO",
  "abi": [
    {
      "inputs": [],
      "stateMutability": "nonpayable",
      "type": "constructor"
    },
    {
      "anonymous": false,
      "inputs": [
        {
          "indexed": true,
          "internalType": "uint256",
          "name": "poolId",
          "type": "uint256"
        },
        {
          "indexed": false,
          "internalType": "uint256",
          "name": "hardCap",
          "type": "uint256"
        },
        {
          "indexed": false,
          "internalType": "uint256",
          "name": "softCap",
          "type": "uint256"
        },
        {
          "indexed": false,
          "internalType": "uint256",
          "name": "startDate",
          "type": "uint256"
        },
        {
          "indexed": false,
          "internalType": "uint256",
          "name": "endDate",
          "type": "uint256"
        },
        {
          "indexed": false,
          "internalType": "address",
          "name": "mainToken",
          "type": "address"
        },
        {
          "indexed": false,
          "internalType": "address",
          "name": "projectToken",
          "type": "address"
        },
        {
          "indexed": false,
          "internalType": "uint256",
          "name": "minAllocationPerUser",
          "type": "uint256"
        }
      ],
      "name": "NewPool",
      "type": "event"
    },
    {
      "inputs": [
        {
          "internalType": "uint256",
          "name": "",
          "type": "uint256"
        }
      ],
      "name": "accessManager",
      "outputs": [
        {
          "internalType": "address",
          "name": "",
          "type": "address"
        }
      ],
      "stateMutability": "view",
      "type": "function"
    },
    {
      "inputs": [],
      "name": "adminAddress",
      "outputs": [
        {
          "internalType": "address",
          "name": "",
          "type": "address"
        }
      ],
      "stateMutability": "view",
      "type": "function"
    },
    {
      "inputs": [
        {
          "internalType": "uint256",
          "name": "",
          "type": "uint256"
        },
        {
          "internalType": "address",
          "name": "",
          "type": "address"
        }
      ],
      "name": "amountList",
      "outputs": [
        {
          "internalType": "uint256",
          "name": "",
          "type": "uint256"
        }
      ],
      "stateMutability": "view",
      "type": "function"
    },
    {
      "inputs": [],
      "name": "mainTokenInstance",
      "outputs": [
        {
          "internalType": "contract PoolToken",
          "name": "",
          "type": "address"
        }
      ],
      "stateMutability": "view",
      "type": "function"
    },
    {
      "inputs": [
        {
          "internalType": "address",
          "name": "",
          "type": "address"
        }
      ],
      "name": "managerWhiteList",
      "outputs": [
        {
          "internalType": "bool",
          "name": "",
          "type": "bool"
        }
      ],
      "stateMutability": "view",
      "type": "function"
    },
    {
      "inputs": [],
      "name": "poolCounter",
      "outputs": [
        {
          "internalType": "uint256",
          "name": "",
          "type": "uint256"
        }
      ],
      "stateMutability": "view",
      "type": "function"
    },
    {
      "inputs": [
        {
          "internalType": "uint256",
          "name": "",
          "type": "uint256"
        }
      ],
      "name": "poolData",
      "outputs": [
        {
          "internalType": "uint256",
          "name": "hardCap",
          "type": "uint256"
        },
        {
          "internalType": "uint256",
          "name": "softCap",
          "type": "uint256"
        },
        {
          "internalType": "uint256",
          "name": "startDate",
          "type": "uint256"
        },
        {
          "internalType": "uint256",
          "name": "endDate",
          "type": "uint256"
        },
        {
          "internalType": "address",
          "name": "mainToken",
          "type": "address"
        },
        {
          "internalType": "address",
          "name": "projectToken",
          "type": "address"
        },
        {
          "internalType": "uint256",
          "name": "minAllocationPerUser",
          "type": "uint256"
        },
        {
          "internalType": "uint256",
          "name": "exchangeRate",
          "type": "uint256"
        },
        {
          "internalType": "string",
          "name": "status",
          "type": "string"
        },
        {
          "internalType": "uint256",
          "name": "totalInvested",
          "type": "uint256"
        },
        {
          "internalType": "uint256",
          "name": "totalProjectTokens",
          "type": "uint256"
        },
        {
          "internalType": "bool",
          "name": "created",
          "type": "bool"
        }
      ],
      "stateMutability": "view",
      "type": "function"
    },
    {
      "inputs": [],
      "name": "projectTokenInstance",
      "outputs": [
        {
          "internalType": "contract PoolToken",
          "name": "",
          "type": "address"
        }
      ],
      "stateMutability": "view",
      "type": "function"
    },
    {
      "inputs": [
        {
          "internalType": "uint256",
          "name": "",
          "type": "uint256"
        }
      ],
      "name": "tokenPrice",
      "outputs": [
        {
          "internalType": "uint256",
          "name": "",
          "type": "uint256"
        }
      ],
      "stateMutability": "view",
      "type": "function"
    },
    {
      "inputs": [
        {
          "internalType": "uint256",
          "name": "",
          "type": "uint256"
        }
      ],
      "name": "tokensSold",
      "outputs": [
        {
          "internalType": "uint256",
          "name": "",
          "type": "uint256"
        }
      ],
      "stateMutability": "view",
      "type": "function"
    },
    {
      "inputs": [
        {
          "internalType": "uint256",
          "name": "",
          "type": "uint256"
        },
        {
          "internalType": "uint256",
          "name": "",
          "type": "uint256"
        }
      ],
      "name": "whiteList",
      "outputs": [
        {
          "internalType": "address",
          "name": "",
          "type": "address"
        }
      ],
      "stateMutability": "view",
      "type": "function"
    },
    {
      "inputs": [
        {
          "internalType": "uint256",
          "name": "idPool",
          "type": "uint256"
        }
      ],
      "name": "poolExists",
      "outputs": [
        {
          "internalType": "bool",
          "name": "",
          "type": "bool"
        }
      ],
      "stateMutability": "view",
      "type": "function"
    },
    {
      "inputs": [
        {
          "internalType": "address",
          "name": "_accessManagerContract",
          "type": "address"
        }
      ],
      "name": "addManager",
      "outputs": [],
      "stateMutability": "nonpayable",
      "type": "function"
    },
    {
      "inputs": [
        {
          "internalType": "address",
          "name": "_accessManagerContract",
          "type": "address"
        }
      ],
      "name": "delistManager",
      "outputs": [],
      "stateMutability": "nonpayable",
      "type": "function"
    },
    {
      "inputs": [
        {
          "internalType": "uint256",
          "name": "hardCap",
          "type": "uint256"
        },
        {
          "internalType": "uint256",
          "name": "softCap",
          "type": "uint256"
        },
        {
          "internalType": "uint256",
          "name": "startDate",
          "type": "uint256"
        },
        {
          "internalType": "uint256",
          "name": "endDate",
          "type": "uint256"
        },
        {
          "internalType": "address",
          "name": "mainToken",
          "type": "address"
        },
        {
          "internalType": "address",
          "name": "projectToken",
          "type": "address"
        },
        {
          "internalType": "uint256",
          "name": "minAllocationPerUser",
          "type": "uint256"
        },
        {
          "internalType": "address",
          "name": "_accessManagerContract",
          "type": "address"
        },
        {
          "internalType": "uint256",
          "name": "exchangeRate",
          "type": "uint256"
        },
        {
          "internalType": "uint256",
          "name": "_tokenPrice",
          "type": "uint256"
        }
      ],
      "name": "initiatePool",
      "outputs": [
        {
          "internalType": "uint256",
          "name": "",
          "type": "uint256"
        }
      ],
      "stateMutability": "nonpayable",
      "type": "function"
    },
    {
      "inputs": [],
      "name": "getPoolId",
      "outputs": [
        {
          "internalType": "uint256",
          "name": "",
          "type": "uint256"
        }
      ],
      "stateMutability": "view",
      "type": "function"
    },
    {
      "inputs": [
        {
          "internalType": "uint256",
          "name": "poolId",
          "type": "uint256"
        },
        {
          "internalType": "uint256",
          "name": "_hardCap",
          "type": "uint256"
        }
      ],
      "name": "setHardCap",
      "outputs": [],
      "stateMutability": "nonpayable",
      "type": "function"
    },
    {
      "inputs": [
        {
          "internalType": "uint256",
          "name": "poolId",
          "type": "uint256"
        }
      ],
      "name": "getHardCap",
      "outputs": [
        {
          "internalType": "uint256",
          "name": "",
          "type": "uint256"
        }
      ],
      "stateMutability": "view",
      "type": "function"
    },
    {
      "inputs": [
        {
          "internalType": "uint256",
          "name": "poolId",
          "type": "uint256"
        },
        {
          "internalType": "uint256",
          "name": "_softCap",
          "type": "uint256"
        }
      ],
      "name": "setSoftCap",
      "outputs": [],
      "stateMutability": "nonpayable",
      "type": "function"
    },
    {
      "inputs": [
        {
          "internalType": "uint256",
          "name": "poolId",
          "type": "uint256"
        }
      ],
      "name": "getSoftCap",
      "outputs": [
        {
          "internalType": "uint256",
          "name": "",
          "type": "uint256"
        }
      ],
      "stateMutability": "view",
      "type": "function"
    },
    {
      "inputs": [
        {
          "internalType": "uint256",
          "name": "poolId",
          "type": "uint256"
        },
        {
          "internalType": "uint256",
          "name": "_startDate",
          "type": "uint256"
        }
      ],
      "name": "setStartDate",
      "outputs": [],
      "stateMutability": "nonpayable",
      "type": "function"
    },
    {
      "inputs": [
        {
          "internalType": "uint256",
          "name": "poolId",
          "type": "uint256"
        }
      ],
      "name": "getStartDate",
      "outputs": [
        {
          "internalType": "uint256",
          "name": "",
          "type": "uint256"
        }
      ],
      "stateMutability": "view",
      "type": "function"
    },
    {
      "inputs": [
        {
          "internalType": "uint256",
          "name": "poolId",
          "type": "uint256"
        },
        {
          "internalType": "uint256",
          "name": "_endDate",
          "type": "uint256"
        }
      ],
      "name": "setEndDate",
      "outputs": [],
      "stateMutability": "nonpayable",
      "type": "function"
    },
    {
      "inputs": [
        {
          "internalType": "uint256",
          "name": "poolId",
          "type": "uint256"
        }
      ],
      "name": "getEndDate",
      "outputs": [
        {
          "internalType": "uint256",
          "name": "",
          "type": "uint256"
        }
      ],
      "stateMutability": "view",
      "type": "function"
    },
    {
      "inputs": [
        {
          "internalType": "uint256",
          "name": "poolId",
          "type": "uint256"
        },
        {
          "internalType": "address",
          "name": "_tokenAddress",
          "type": "address"
        }
      ],
      "name": "setMainToken",
      "outputs": [],
      "stateMutability": "nonpayable",
      "type": "function"
    },
    {
      "inputs": [
        {
          "internalType": "uint256",
          "name": "poolId",
          "type": "uint256"
        }
      ],
      "name": "getMainToken",
      "outputs": [
        {
          "internalType": "address",
          "name": "",
          "type": "address"
        }
      ],
      "stateMutability": "view",
      "type": "function"
    },
    {
      "inputs": [
        {
          "internalType": "uint256",
          "name": "poolId",
          "type": "uint256"
        },
        {
          "internalType": "address",
          "name": "_tokenAddress",
          "type": "address"
        }
      ],
      "name": "setProjectToken",
      "outputs": [],
      "stateMutability": "nonpayable",
      "type": "function"
    },
    {
      "inputs": [
        {
          "internalType": "uint256",
          "name": "poolId",
          "type": "uint256"
        }
      ],
      "name": "getProjectToken",
      "outputs": [
        {
          "internalType": "address",
          "name": "",
          "type": "address"
        }
      ],
      "stateMutability": "view",
      "type": "function"
    },
    {
      "inputs": [
        {
          "internalType": "uint256",
          "name": "poolId",
          "type": "uint256"
        },
        {
          "internalType": "uint256",
          "name": "_minAllocationPerUser",
          "type": "uint256"
        }
      ],
      "name": "setMinAllocation",
      "outputs": [],
      "stateMutability": "nonpayable",
      "type": "function"
    },
    {
      "inputs": [
        {
          "internalType": "uint256",
          "name": "poolId",
          "type": "uint256"
        }
      ],
      "name": "getMinAllocation",
      "outputs": [
        {
          "internalType": "uint256",
          "name": "",
          "type": "uint256"
        }
      ],
      "stateMutability": "view",
      "type": "function"
    },
    {
      "inputs": [
        {
          "internalType": "uint256",
          "name": "poolId",
          "type": "uint256"
        }
      ],
      "name": "getAdminAddress",
      "outputs": [
        {
          "internalType": "address",
          "name": "",
          "type": "address"
        }
      ],
      "stateMutability": "view",
      "type": "function"
    },
    {
      "inputs": [
        {
          "internalType": "uint256",
          "name": "poolId",
          "type": "uint256"
        }
      ],
      "name": "getExchangeRate",
      "outputs": [
        {
          "internalType": "uint256",
          "name": "",
          "type": "uint256"
        }
      ],
      "stateMutability": "view",
      "type": "function"
    },
    {
      "inputs": [
        {
          "internalType": "uint256",
          "name": "poolId",
          "type": "uint256"
        },
        {
          "internalType": "uint256",
          "name": "newRate",
          "type": "uint256"
        }
      ],
      "name": "setExchangeRate",
      "outputs": [],
      "stateMutability": "nonpayable",
      "type": "function"
    },
    {
      "inputs": [
        {
          "internalType": "uint256",
          "name": "poolId",
          "type": "uint256"
        },
        {
          "internalType": "string",
          "name": "_status",
          "type": "string"
        }
      ],
      "name": "setStatus",
      "outputs": [],
      "stateMutability": "nonpayable",
      "type": "function"
    },
    {
      "inputs": [
        {
          "internalType": "uint256",
          "name": "poolId",
          "type": "uint256"
        }
      ],
      "name": "getStatus",
      "outputs": [
        {
          "internalType": "string",
          "name": "",
          "type": "string"
        }
      ],
      "stateMutability": "view",
      "type": "function"
    },
    {
      "inputs": [
        {
          "internalType": "uint256",
          "name": "poolId",
          "type": "uint256"
        },
        {
          "internalType": "address",
          "name": "investor",
          "type": "address"
        }
      ],
      "name": "whiteListForPool",
      "outputs": [],
      "stateMutability": "nonpayable",
      "type": "function"
    },
    {
      "inputs": [
        {
          "internalType": "uint256",
          "name": "poolId",
          "type": "uint256"
        },
        {
          "internalType": "address",
          "name": "investor",
          "type": "address"
        }
      ],
      "name": "isWhiteListedForPool",
      "outputs": [
        {
          "internalType": "bool",
          "name": "",
          "type": "bool"
        }
      ],
      "stateMutability": "view",
      "type": "function"
    },
    {
      "inputs": [
        {
          "internalType": "uint256",
          "name": "poolId",
          "type": "uint256"
        },
        {
          "internalType": "uint256",
          "name": "_numberOfTokens",
          "type": "uint256"
        }
      ],
      "name": "approve",
      "outputs": [],
      "stateMutability": "payable",
      "type": "function"
    },
    {
      "inputs": [
        {
          "internalType": "uint256",
          "name": "poolId",
          "type": "uint256"
        },
        {
          "internalType": "uint256",
          "name": "_numberOfTokens",
          "type": "uint256"
        }
      ],
      "name": "invest",
      "outputs": [],
      "stateMutability": "payable",
      "type": "function"
    },
    {
      "inputs": [
        {
          "internalType": "uint256",
          "name": "poolId",
          "type": "uint256"
        }
      ],
      "name": "getAmountInvested",
      "outputs": [
        {
          "internalType": "uint256",
          "name": "",
          "type": "uint256"
        }
      ],
      "stateMutability": "view",
      "type": "function"
    },
    {
      "inputs": [
        {
          "internalType": "uint256",
          "name": "poolId",
          "type": "uint256"
        },
        {
          "internalType": "address",
          "name": "investor",
          "type": "address"
        }
      ],
      "name": "getAmountInvestedByAddress",
      "outputs": [
        {
          "internalType": "uint256",
          "name": "",
          "type": "uint256"
        }
      ],
      "stateMutability": "view",
      "type": "function"
    },
    {
      "inputs": [
        {
          "internalType": "uint256",
          "name": "poolId",
          "type": "uint256"
        }
      ],
      "name": "getExchangeAmount",
      "outputs": [
        {
          "internalType": "uint256",
          "name": "",
          "type": "uint256"
        }
      ],
      "stateMutability": "view",
      "type": "function"
    },
    {
      "inputs": [
        {
          "internalType": "uint256",
          "name": "poolId",
          "type": "uint256"
        },
        {
          "internalType": "uint256",
          "name": "amount",
          "type": "uint256"
        }
      ],
      "name": "getExchangeAmountFor",
      "outputs": [
        {
          "internalType": "uint256",
          "name": "",
          "type": "uint256"
        }
      ],
      "stateMutability": "view",
      "type": "function"
    },
    {
      "inputs": [
        {
          "internalType": "uint256",
          "name": "poolId",
          "type": "uint256"
        }
      ],
      "name": "getTotalInvested",
      "outputs": [
        {
          "internalType": "uint256",
          "name": "",
          "type": "uint256"
        }
      ],
      "stateMutability": "view",
      "type": "function"
    },
    {
      "inputs": [
        {
          "internalType": "uint256",
          "name": "poolId",
          "type": "uint256"
        }
      ],
      "name": "getTokenPrice",
      "outputs": [
        {
          "internalType": "uint256",
          "name": "",
          "type": "uint256"
        }
      ],
      "stateMutability": "view",
      "type": "function"
    },
    {
      "inputs": [
        {
          "internalType": "uint256",
          "name": "poolId",
          "type": "uint256"
        }
      ],
      "name": "approveClaim",
      "outputs": [],
      "stateMutability": "nonpayable",
      "type": "function"
    },
    {
      "inputs": [
        {
          "internalType": "uint256",
          "name": "poolId",
          "type": "uint256"
        }
      ],
      "name": "claim",
      "outputs": [],
      "stateMutability": "payable",
      "type": "function"
    },
    {
      "inputs": [
        {
          "internalType": "uint256",
          "name": "poolId",
          "type": "uint256"
        }
      ],
      "name": "getTokensSold",
      "outputs": [
        {
          "internalType": "uint256",
          "name": "",
          "type": "uint256"
        }
      ],
      "stateMutability": "view",
      "type": "function"
    },
    {
      "inputs": [
        {
          "internalType": "uint256",
          "name": "poolId",
          "type": "uint256"
        }
      ],
      "name": "getInvestors",
      "outputs": [
        {
          "internalType": "address[]",
          "name": "",
          "type": "address[]"
        }
      ],
      "stateMutability": "view",
      "type": "function"
    },
    {
      "inputs": [
        {
          "internalType": "uint256",
          "name": "poolId",
          "type": "uint256"
        }
      ],
      "name": "getProjectTokenTotal",
      "outputs": [
        {
          "internalType": "uint256",
          "name": "",
          "type": "uint256"
        }
      ],
      "stateMutability": "view",
      "type": "function"
    },
    {
      "inputs": [],
      "name": "getBlockTimeStamp",
      "outputs": [
        {
          "internalType": "uint256",
          "name": "",
          "type": "uint256"
        }
      ],
      "stateMutability": "view",
      "type": "function"
    },
    {
      "inputs": [
        {
          "internalType": "uint256",
          "name": "poolId",
          "type": "uint256"
        },
        {
          "internalType": "uint256",
          "name": "_numberOfTokens",
          "type": "uint256"
        }
      ],
      "name": "sendProjectTokens",
      "outputs": [],
      "stateMutability": "payable",
      "type": "function"
    },
    {
      "inputs": [
        {
          "internalType": "uint256",
          "name": "poolId",
          "type": "uint256"
        },
        {
          "internalType": "uint256",
          "name": "additionalTokens",
          "type": "uint256"
        }
      ],
      "name": "canPayout",
      "outputs": [
        {
          "internalType": "bool",
          "name": "",
          "type": "bool"
        }
      ],
      "stateMutability": "view",
      "type": "function"
    },
    {
      "inputs": [
        {
          "internalType": "uint256",
          "name": "poolId",
          "type": "uint256"
        }
      ],
      "name": "approveRetrieve",
      "outputs": [],
      "stateMutability": "nonpayable",
      "type": "function"
    },
    {
      "inputs": [
        {
          "internalType": "uint256",
          "name": "poolId",
          "type": "uint256"
        }
      ],
      "name": "retrieveMainTokens",
      "outputs": [],
      "stateMutability": "payable",
      "type": "function"
    }
  ],
  "bytecode": "0x608060405234801561001057600080fd5b5033600960006101000a81548173ffffffffffffffffffffffffffffffffffffffff021916908373ffffffffffffffffffffffffffffffffffffffff16021790555061553f806100616000396000f3fe6080604052600436106103505760003560e01c80637402ba96116101c6578063ca3a9c35116100f7578063dab4e1c911610095578063ec0020811161006f578063ec00208114610d79578063f0a1013714610dc1578063f55ecf0614610dfe578063fc6f946814610e2757610350565b8063dab4e1c914610cea578063e3f92d5e14610d13578063eaf3d77314610d3c57610350565b8063d2ccac17116100d1578063d2ccac1714610c17578063d4ddce8a14610c54578063d87aa64314610c91578063d9e7c93814610cad57610350565b8063ca3a9c3514610b86578063ca49a54314610bc3578063d052526614610bee57610350565b806394474d5711610164578063b21bbd071161013e578063b21bbd0714610a92578063ba92763a14610acf578063c457fb3714610b0c578063c50aa1f214610b4957610350565b806394474d5714610a015780639e3079cb14610a3e5780639f56d13514610a6957610350565b806376917df9116101a057806376917df9146109425780637d2a7b951461096b5780638b19e7b7146109875780638f640151146109c457610350565b80637402ba96146108b357806374371a09146108f0578063751e89421461091957610350565b80633d230ea4116102a05780635d35a3d91161023e57806364e9b4211161021857806364e9b421146107e757806365ad9f341461082457806367453d311461084d57806372fc95251461088a57610350565b80635d35a3d9146107515780635e1871d21461076d57806362aaf089146107aa57610350565b80634aa8fc561161027a5780634aa8fc561461065d57806357d178051461069a5780635c622a0e146106d75780635c6b047a1461071457610350565b80633d230ea4146105cc57806343cb4ac4146105f757806346e301351461063457610350565b80632d06177a1161030d57806332194dad116102e757806332194dad1461052c57806332f07f0714610569578063379607f51461058557806338fff2d0146105a157610350565b80632d06177a1461049d5780632ff5c96f146104c65780633165f0c21461050357610350565b80630292943a14610355578063046babe414610392578063088fee5b146103bd5780631139de55146103e65780631ab6ab04146104235780632b190b2514610460575b600080fd5b34801561036157600080fd5b5061037c60048036038101906103779190614512565b610e52565b6040516103899190614ce8565b60405180910390f35b34801561039e57600080fd5b506103a7610ebc565b6040516103b49190614aeb565b60405180910390f35b3480156103c957600080fd5b506103e460048036038101906103df919061453b565b610ee0565b005b3480156103f257600080fd5b5061040d60048036038101906104089190614512565b611024565b60405161041a9190614aae565b60405180910390f35b34801561042f57600080fd5b5061044a60048036038101906104459190614512565b61110f565b6040516104579190614a5c565b60405180910390f35b34801561046c57600080fd5b506104876004803603810190610482919061453b565b611199565b6040516104949190614ad0565b60405180910390f35b3480156104a957600080fd5b506104c460048036038101906104bf91906144c0565b6112d8565b005b3480156104d257600080fd5b506104ed60048036038101906104e891906145cb565b6113c3565b6040516104fa9190614a5c565b60405180910390f35b34801561050f57600080fd5b5061052a60048036038101906105259190614512565b611411565b005b34801561053857600080fd5b50610553600480360381019061054e919061453b565b6115e3565b6040516105609190614ce8565b60405180910390f35b610583600480360381019061057e9190614512565b61163e565b005b61059f600480360381019061059a9190614512565b6118ef565b005b3480156105ad57600080fd5b506105b6611cc2565b6040516105c39190614ce8565b60405180910390f35b3480156105d857600080fd5b506105e1611ccc565b6040516105ee9190614aeb565b60405180910390f35b34801561060357600080fd5b5061061e60048036038101906106199190614512565b611cf2565b60405161062b9190614ce8565b60405180910390f35b34801561064057600080fd5b5061065b60048036038101906106569190614512565b611d5c565b005b34801561066957600080fd5b50610684600480360381019061067f9190614607565b611f20565b6040516106919190614ce8565b60405180910390f35b3480156106a657600080fd5b506106c160048036038101906106bc9190614512565b61239b565b6040516106ce9190614ce8565b60405180910390f35b3480156106e357600080fd5b506106fe60048036038101906106f99190614512565b612402565b60405161070b9190614b06565b60405180910390f35b34801561072057600080fd5b5061073b60048036038101906107369190614512565b6126e7565b6040516107489190614ce8565b60405180910390f35b61076b600480360381019061076691906145cb565b612707565b005b34801561077957600080fd5b50610794600480360381019061078f9190614512565b612944565b6040516107a19190614ad0565b60405180910390f35b3480156107b657600080fd5b506107d160048036038101906107cc9190614512565b61297f565b6040516107de9190614ce8565b60405180910390f35b3480156107f357600080fd5b5061080e600480360381019061080991906145cb565b6129e9565b60405161081b9190614ad0565b60405180910390f35b34801561083057600080fd5b5061084b600480360381019061084691906145cb565b612a81565b005b34801561085957600080fd5b50610874600480360381019061086f9190614512565b612b8b565b6040516108819190614ce8565b60405180910390f35b34801561089657600080fd5b506108b160048036038101906108ac919061453b565b612be5565b005b3480156108bf57600080fd5b506108da60048036038101906108d59190614512565b612d48565b6040516108e79190614ce8565b60405180910390f35b3480156108fc57600080fd5b50610917600480360381019061091291906145cb565b612d60565b005b34801561092557600080fd5b50610940600480360381019061093b91906145cb565b612e6a565b005b34801561094e57600080fd5b5061096960048036038101906109649190614577565b612f74565b005b610985600480360381019061098091906145cb565b61308e565b005b34801561099357600080fd5b506109ae60048036038101906109a99190614512565b61341b565b6040516109bb9190614ce8565b60405180910390f35b3480156109d057600080fd5b506109eb60048036038101906109e691906144c0565b6134cd565b6040516109f89190614ad0565b60405180910390f35b348015610a0d57600080fd5b50610a286004803603810190610a239190614512565b6134ed565b604051610a359190614a5c565b60405180910390f35b348015610a4a57600080fd5b50610a53613520565b604051610a609190614ce8565b60405180910390f35b348015610a7557600080fd5b50610a906004803603810190610a8b91906145cb565b613526565b005b348015610a9e57600080fd5b50610ab96004803603810190610ab491906145cb565b613630565b604051610ac69190614ce8565b60405180910390f35b348015610adb57600080fd5b50610af66004803603810190610af19190614512565b613668565b604051610b039190614ce8565b60405180910390f35b348015610b1857600080fd5b50610b336004803603810190610b2e9190614512565b6136d2565b604051610b409190614ce8565b60405180910390f35b348015610b5557600080fd5b50610b706004803603810190610b6b919061453b565b613739565b604051610b7d9190614ce8565b60405180910390f35b348015610b9257600080fd5b50610bad6004803603810190610ba89190614512565b61375e565b604051610bba9190614ce8565b60405180910390f35b348015610bcf57600080fd5b50610bd86137c8565b604051610be59190614ce8565b60405180910390f35b348015610bfa57600080fd5b50610c156004803603810190610c10919061453b565b6137d5565b005b348015610c2357600080fd5b50610c3e6004803603810190610c399190614512565b613919565b604051610c4b9190614ce8565b60405180910390f35b348015610c6057600080fd5b50610c7b6004803603810190610c769190614512565b613983565b604051610c889190614ce8565b60405180910390f35b610cab6004803603810190610ca691906145cb565b61399b565b005b348015610cb957600080fd5b50610cd46004803603810190610ccf9190614512565b613ddb565b604051610ce19190614ce8565b60405180910390f35b348015610cf657600080fd5b50610d116004803603810190610d0c91906145cb565b613eac565b005b348015610d1f57600080fd5b50610d3a6004803603810190610d3591906144c0565b613fb6565b005b348015610d4857600080fd5b50610d636004803603810190610d5e9190614512565b6140a1565b604051610d709190614a5c565b60405180910390f35b348015610d8557600080fd5b50610da06004803603810190610d9b9190614512565b614128565b604051610db89c9b9a99989796959493929190614d72565b60405180910390f35b348015610dcd57600080fd5b50610de86004803603810190610de39190614512565b61425d565b604051610df59190614a5c565b60405180910390f35b348015610e0a57600080fd5b50610e256004803603810190610e2091906145cb565b6142e7565b005b348015610e3357600080fd5b50610e3c614350565b604051610e499190614a5c565b60405180910390f35b600081610e5e81612944565b610e9d576040517f08c379a0000000000000000000000000000000000000000000000000000000008152600401610e9490614ba8565b60405180910390fd5b600a600084815260200190815260200160002060060154915050919050565b60008054906101000a900473ffffffffffffffffffffffffffffffffffffffff1681565b81610eea81612944565b610f29576040517f08c379a0000000000000000000000000000000000000000000000000000000008152600401610f2090614ba8565b60405180910390fd5b3373ffffffffffffffffffffffffffffffffffffffff166006600083815260200190815260200160002060009054906101000a900473ffffffffffffffffffffffffffffffffffffffff1673ffffffffffffffffffffffffffffffffffffffff1614610fca576040517f08c379a0000000000000000000000000000000000000000000000000000000008152600401610fc190614c88565b60405180910390fd5b81600a600085815260200190815260200160002060040160006101000a81548173ffffffffffffffffffffffffffffffffffffffff021916908373ffffffffffffffffffffffffffffffffffffffff160217905550505050565b60608161103081612944565b61106f576040517f08c379a000000000000000000000000000000000000000000000000000000000815260040161106690614ba8565b60405180910390fd5b6004600084815260200190815260200160002080548060200260200160405190810160405280929190818152602001828054801561110257602002820191906000526020600020905b8160009054906101000a900473ffffffffffffffffffffffffffffffffffffffff1673ffffffffffffffffffffffffffffffffffffffff16815260200190600101908083116110b8575b5050505050915050919050565b60008161111b81612944565b61115a576040517f08c379a000000000000000000000000000000000000000000000000000000000815260040161115190614ba8565b60405180910390fd5b600a600084815260200190815260200160002060040160009054906101000a900473ffffffffffffffffffffffffffffffffffffffff16915050919050565b6000826111a581612944565b6111e4576040517f08c379a00000000000000000000000000000000000000000000000000000000081526004016111db90614ba8565b60405180910390fd5b60005b60046000868152602001908152602001600020805490508110156112cb578373ffffffffffffffffffffffffffffffffffffffff16600460008781526020019081526020016000208281548110611267577f4e487b7100000000000000000000000000000000000000000000000000000000600052603260045260246000fd5b9060005260206000200160009054906101000a900473ffffffffffffffffffffffffffffffffffffffff1673ffffffffffffffffffffffffffffffffffffffff1614156112b85760019250506112d1565b80806112c390615124565b9150506111e7565b50600091505b5092915050565b3373ffffffffffffffffffffffffffffffffffffffff16600960009054906101000a900473ffffffffffffffffffffffffffffffffffffffff1673ffffffffffffffffffffffffffffffffffffffff1614611368576040517f08c379a000000000000000000000000000000000000000000000000000000000815260040161135f90614c28565b60405180910390fd5b6001600360008373ffffffffffffffffffffffffffffffffffffffff1673ffffffffffffffffffffffffffffffffffffffff16815260200190815260200160002060006101000a81548160ff02191690831515021790555050565b600460205281600052604060002081815481106113df57600080fd5b906000526020600020016000915091509054906101000a900473ffffffffffffffffffffffffffffffffffffffff1681565b8061141b81612944565b61145a576040517f08c379a000000000000000000000000000000000000000000000000000000000815260040161145190614ba8565b60405180910390fd5b3373ffffffffffffffffffffffffffffffffffffffff166006600083815260200190815260200160002060009054906101000a900473ffffffffffffffffffffffffffffffffffffffff1673ffffffffffffffffffffffffffffffffffffffff16146114fb576040517f08c379a00000000000000000000000000000000000000000000000000000000081526004016114f290614c88565b60405180910390fd5b600a600083815260200190815260200160002060040160009054906101000a900473ffffffffffffffffffffffffffffffffffffffff1673ffffffffffffffffffffffffffffffffffffffff1663e1f21c673033600a6000878152602001908152602001600020600901546040518463ffffffff1660e01b815260040161158493929190614a77565b602060405180830381600087803b15801561159e57600080fd5b505af11580156115b2573d6000803e3d6000fd5b505050506040513d601f19601f820116820180604052508101906115d691906144e9565b6115df57600080fd5b5050565b60006005600084815260200190815260200160002060008373ffffffffffffffffffffffffffffffffffffffff1673ffffffffffffffffffffffffffffffffffffffff16815260200190815260200160002054905092915050565b8061164881612944565b611687576040517f08c379a000000000000000000000000000000000000000000000000000000000815260040161167e90614ba8565b60405180910390fd5b3373ffffffffffffffffffffffffffffffffffffffff166006600083815260200190815260200160002060009054906101000a900473ffffffffffffffffffffffffffffffffffffffff1673ffffffffffffffffffffffffffffffffffffffff1614611728576040517f08c379a000000000000000000000000000000000000000000000000000000000815260040161171f90614c88565b60405180910390fd5b6040518060400160405280600881526020017f46696e69736865640000000000000000000000000000000000000000000000008152508051906020012061176e83612402565b80519060200120146117b5576040517f08c379a00000000000000000000000000000000000000000000000000000000081526004016117ac90614b88565b60405180910390fd5b600a600083815260200190815260200160002060040160009054906101000a900473ffffffffffffffffffffffffffffffffffffffff1673ffffffffffffffffffffffffffffffffffffffff166323b872dd3033600a6000878152602001908152602001600020600901546040518463ffffffff1660e01b815260040161183e93929190614a77565b602060405180830381600087803b15801561185857600080fd5b505af115801561186c573d6000803e3d6000fd5b505050506040513d601f19601f8201168201806040525081019061189091906144e9565b6118cf576040517f08c379a00000000000000000000000000000000000000000000000000000000081526004016118c690614b48565b60405180910390fd5b6000600a6000848152602001908152602001600020600901819055505050565b806118f981612944565b611938576040517f08c379a000000000000000000000000000000000000000000000000000000000815260040161192f90614ba8565b60405180910390fd5b6000805b6004600084815260200190815260200160002080549050811015611a1f573373ffffffffffffffffffffffffffffffffffffffff166004600085815260200190815260200160002082815481106119bc577f4e487b7100000000000000000000000000000000000000000000000000000000600052603260045260246000fd5b9060005260206000200160009054906101000a900473ffffffffffffffffffffffffffffffffffffffff1673ffffffffffffffffffffffffffffffffffffffff161415611a0c5760019150611a1f565b8080611a1790615124565b91505061193c565b5080611a60576040517f08c379a0000000000000000000000000000000000000000000000000000000008152600401611a5790614bc8565b60405180910390fd5b6040518060400160405280600881526020017f46696e697368656400000000000000000000000000000000000000000000000081525080519060200120611aa684612402565b8051906020012014611aed576040517f08c379a0000000000000000000000000000000000000000000000000000000008152600401611ae490614b88565b60405180910390fd5b6000611af884613ddb565b9050600a600085815260200190815260200160002060050160009054906101000a900473ffffffffffffffffffffffffffffffffffffffff1673ffffffffffffffffffffffffffffffffffffffff166323b872dd3033846040518463ffffffff1660e01b8152600401611b6d93929190614a77565b602060405180830381600087803b158015611b8757600080fd5b505af1158015611b9b573d6000803e3d6000fd5b505050506040513d601f19601f82011682018060405250810190611bbf91906144e9565b611bfe576040517f08c379a0000000000000000000000000000000000000000000000000000000008152600401611bf590614b48565b60405180910390fd5b806005600086815260200190815260200160002060003373ffffffffffffffffffffffffffffffffffffffff1673ffffffffffffffffffffffffffffffffffffffff1681526020019081526020016000206000828254611c5e9190614fdf565b9250508190555080600a6000868152602001908152602001600020600a016000828254611c8b9190614fdf565b9250508190555080600760008681526020019081526020016000206000828254611cb59190614efe565b9250508190555050505050565b6000600254905090565b600160009054906101000a900473ffffffffffffffffffffffffffffffffffffffff1681565b600081611cfe81612944565b611d3d576040517f08c379a0000000000000000000000000000000000000000000000000000000008152600401611d3490614ba8565b60405180910390fd5b600a6000848152602001908152602001600020600a0154915050919050565b80611d6681612944565b611da5576040517f08c379a0000000000000000000000000000000000000000000000000000000008152600401611d9c90614ba8565b60405180910390fd5b3373ffffffffffffffffffffffffffffffffffffffff166006600083815260200190815260200160002060009054906101000a900473ffffffffffffffffffffffffffffffffffffffff1673ffffffffffffffffffffffffffffffffffffffff1614611e46576040517f08c379a0000000000000000000000000000000000000000000000000000000008152600401611e3d90614c88565b60405180910390fd5b600a600083815260200190815260200160002060050160009054906101000a900473ffffffffffffffffffffffffffffffffffffffff1673ffffffffffffffffffffffffffffffffffffffff1663e1f21c673033611ea386613ddb565b6040518463ffffffff1660e01b8152600401611ec193929190614a77565b602060405180830381600087803b158015611edb57600080fd5b505af1158015611eef573d6000803e3d6000fd5b505050506040513d601f19601f82011682018060405250810190611f1391906144e9565b611f1c57600080fd5b5050565b6000600360003373ffffffffffffffffffffffffffffffffffffffff1673ffffffffffffffffffffffffffffffffffffffff16815260200190815260200160002060009054906101000a900460ff16611fae576040517f08c379a0000000000000000000000000000000000000000000000000000000008152600401611fa590614cc8565b60405180910390fd5b60011515600360008673ffffffffffffffffffffffffffffffffffffffff1673ffffffffffffffffffffffffffffffffffffffff16815260200190815260200160002060009054906101000a900460ff16151514612041576040517f08c379a000000000000000000000000000000000000000000000000000000000815260040161203890614b68565b60405180910390fd5b8373ffffffffffffffffffffffffffffffffffffffff163373ffffffffffffffffffffffffffffffffffffffff16146120af576040517f08c379a00000000000000000000000000000000000000000000000000000000081526004016120a690614be8565b60405180910390fd5b4288116120f1576040517f08c379a00000000000000000000000000000000000000000000000000000000081526004016120e890614c08565b60405180910390fd5b60006002600081548092919061210690615124565b9190505590506040518061018001604052808d81526020018c81526020018b81526020018a81526020018973ffffffffffffffffffffffffffffffffffffffff1681526020018873ffffffffffffffffffffffffffffffffffffffff168152602001878152602001858152602001604051806020016040528060008152508152602001600081526020016000815260200160011515815250600a600060025481526020019081526020016000206000820151816000015560208201518160010155604082015181600201556060820151816003015560808201518160040160006101000a81548173ffffffffffffffffffffffffffffffffffffffff021916908373ffffffffffffffffffffffffffffffffffffffff16021790555060a08201518160050160006101000a81548173ffffffffffffffffffffffffffffffffffffffff021916908373ffffffffffffffffffffffffffffffffffffffff16021790555060c0820151816006015560e0820151816007015561010082015181600801908051906020019061229a929190614376565b50610120820151816009015561014082015181600a015561016082015181600b0160006101000a81548160ff0219169083151502179055509050506002547f100694cbad7219bb6b97301c215fcbee2fc7a396f9f7e54e3c9434b6351550648d8d8d8d8d8d8d6040516123139796959493929190614d03565b60405180910390a282600860006002548152602001908152602001600020819055508460066000600254815260200190815260200160002060006101000a81548173ffffffffffffffffffffffffffffffffffffffff021916908373ffffffffffffffffffffffffffffffffffffffff160217905550809150509a9950505050505050505050565b6000816123a781612944565b6123e6576040517f08c379a00000000000000000000000000000000000000000000000000000000081526004016123dd90614ba8565b60405180910390fd5b6007600084815260200190815260200160002054915050919050565b60608161240e81612944565b61244d576040517f08c379a000000000000000000000000000000000000000000000000000000000815260040161244490614ba8565b60405180910390fd5b6040518060400160405280600681526020017f506175736564000000000000000000000000000000000000000000000000000081525080519060200120600a60008581526020019081526020016000206008016040516124ad9190614a45565b6040518091039020148061252657506040518060400160405280600981526020017f43616e63656c6c6564000000000000000000000000000000000000000000000081525080519060200120600a600085815260200190815260200160002060080160405161251c9190614a45565b6040518091039020145b156125d157600a6000848152602001908152602001600020600801805461254c906150c1565b80601f0160208091040260200160405190810160405280929190818152602001828054612578906150c1565b80156125c55780601f1061259a576101008083540402835291602001916125c5565b820191906000526020600020905b8154815290600101906020018083116125a857829003601f168201915b505050505091506126e1565b42600a600085815260200190815260200160002060020154111561262c576040518060400160405280600881526020017f5570636f6d696e6700000000000000000000000000000000000000000000000081525091506126e1565b42600a600085815260200190815260200160002060020154108015612666575042600a600085815260200190815260200160002060030154115b156126a8576040518060400160405280600781526020017f4f6e676f696e670000000000000000000000000000000000000000000000000081525091506126e1565b6040518060400160405280600881526020017f46696e697368656400000000000000000000000000000000000000000000000081525091505b50919050565b6000600a6000838152602001908152602001600020600301549050919050565b8161271181612944565b612750576040517f08c379a000000000000000000000000000000000000000000000000000000000815260040161274790614ba8565b60405180910390fd5b6000805b6004600084815260200190815260200160002080549050811015612837573373ffffffffffffffffffffffffffffffffffffffff166004600085815260200190815260200160002082815481106127d4577f4e487b7100000000000000000000000000000000000000000000000000000000600052603260045260246000fd5b9060005260206000200160009054906101000a900473ffffffffffffffffffffffffffffffffffffffff1673ffffffffffffffffffffffffffffffffffffffff1614156128245760019150612837565b808061282f90615124565b915050612754565b5080612878576040517f08c379a000000000000000000000000000000000000000000000000000000000815260040161286f90614bc8565b60405180910390fd5b600a600085815260200190815260200160002060040160009054906101000a900473ffffffffffffffffffffffffffffffffffffffff1673ffffffffffffffffffffffffffffffffffffffff1663e1f21c673330866040518463ffffffff1660e01b81526004016128eb93929190614a77565b602060405180830381600087803b15801561290557600080fd5b505af1158015612919573d6000803e3d6000fd5b505050506040513d601f19601f8201168201806040525081019061293d91906144e9565b5050505050565b6000600a6000838152602001908152602001600020600b0160009054906101000a900460ff16612975576000612978565b60015b9050919050565b60008161298b81612944565b6129ca576040517f08c379a00000000000000000000000000000000000000000000000000000000081526004016129c190614ba8565b60405180910390fd5b600a600084815260200190815260200160002060070154915050919050565b6000826129f581612944565b612a34576040517f08c379a0000000000000000000000000000000000000000000000000000000008152600401612a2b90614ba8565b60405180910390fd5b612a5f8484600a600088815260200190815260200160002060090154612a5a9190614efe565b613630565b600a6000868152602001908152602001600020600a0154101591505092915050565b81612a8b81612944565b612aca576040517f08c379a0000000000000000000000000000000000000000000000000000000008152600401612ac190614ba8565b60405180910390fd5b3373ffffffffffffffffffffffffffffffffffffffff166006600083815260200190815260200160002060009054906101000a900473ffffffffffffffffffffffffffffffffffffffff1673ffffffffffffffffffffffffffffffffffffffff1614612b6b576040517f08c379a0000000000000000000000000000000000000000000000000000000008152600401612b6290614c88565b60405180910390fd5b81600a600085815260200190815260200160002060000181905550505050565b60006005600083815260200190815260200160002060003373ffffffffffffffffffffffffffffffffffffffff1673ffffffffffffffffffffffffffffffffffffffff168152602001908152602001600020549050919050565b81612bef81612944565b612c2e576040517f08c379a0000000000000000000000000000000000000000000000000000000008152600401612c2590614ba8565b60405180910390fd5b3373ffffffffffffffffffffffffffffffffffffffff166006600083815260200190815260200160002060009054906101000a900473ffffffffffffffffffffffffffffffffffffffff1673ffffffffffffffffffffffffffffffffffffffff1614612ccf576040517f08c379a0000000000000000000000000000000000000000000000000000000008152600401612cc690614c88565b60405180910390fd5b60046000848152602001908152602001600020829080600181540180825580915050600190039060005260206000200160009091909190916101000a81548173ffffffffffffffffffffffffffffffffffffffff021916908373ffffffffffffffffffffffffffffffffffffffff160217905550505050565b60076020528060005260406000206000915090505481565b81612d6a81612944565b612da9576040517f08c379a0000000000000000000000000000000000000000000000000000000008152600401612da090614ba8565b60405180910390fd5b3373ffffffffffffffffffffffffffffffffffffffff166006600083815260200190815260200160002060009054906101000a900473ffffffffffffffffffffffffffffffffffffffff1673ffffffffffffffffffffffffffffffffffffffff1614612e4a576040517f08c379a0000000000000000000000000000000000000000000000000000000008152600401612e4190614c88565b60405180910390fd5b81600a600085815260200190815260200160002060010181905550505050565b81612e7481612944565b612eb3576040517f08c379a0000000000000000000000000000000000000000000000000000000008152600401612eaa90614ba8565b60405180910390fd5b3373ffffffffffffffffffffffffffffffffffffffff166006600083815260200190815260200160002060009054906101000a900473ffffffffffffffffffffffffffffffffffffffff1673ffffffffffffffffffffffffffffffffffffffff1614612f54576040517f08c379a0000000000000000000000000000000000000000000000000000000008152600401612f4b90614c88565b60405180910390fd5b81600a600085815260200190815260200160002060030181905550505050565b81612f7e81612944565b612fbd576040517f08c379a0000000000000000000000000000000000000000000000000000000008152600401612fb490614ba8565b60405180910390fd5b3373ffffffffffffffffffffffffffffffffffffffff166006600083815260200190815260200160002060009054906101000a900473ffffffffffffffffffffffffffffffffffffffff1673ffffffffffffffffffffffffffffffffffffffff161461305e576040517f08c379a000000000000000000000000000000000000000000000000000000000815260040161305590614c88565b60405180910390fd5b81600a60008581526020019081526020016000206008019080519060200190613088929190614376565b50505050565b8161309881612944565b6130d7576040517f08c379a00000000000000000000000000000000000000000000000000000000081526004016130ce90614ba8565b60405180910390fd5b3373ffffffffffffffffffffffffffffffffffffffff166006600083815260200190815260200160002060009054906101000a900473ffffffffffffffffffffffffffffffffffffffff1673ffffffffffffffffffffffffffffffffffffffff1614613178576040517f08c379a000000000000000000000000000000000000000000000000000000000815260040161316f90614c88565b60405180910390fd5b60086000848152602001908152602001600020546131968484613630565b6131a09190614f85565b34146131e1576040517f08c379a00000000000000000000000000000000000000000000000000000000081526004016131d890614c68565b60405180910390fd5b600a600084815260200190815260200160002060050160009054906101000a900473ffffffffffffffffffffffffffffffffffffffff1673ffffffffffffffffffffffffffffffffffffffff1663e1f21c673330856040518463ffffffff1660e01b815260040161325493929190614a77565b602060405180830381600087803b15801561326e57600080fd5b505af1158015613282573d6000803e3d6000fd5b505050506040513d601f19601f820116820180604052508101906132a691906144e9565b6132e5576040517f08c379a00000000000000000000000000000000000000000000000000000000081526004016132dc90614ca8565b60405180910390fd5b600a600084815260200190815260200160002060050160009054906101000a900473ffffffffffffffffffffffffffffffffffffffff1673ffffffffffffffffffffffffffffffffffffffff166323b872dd3330856040518463ffffffff1660e01b815260040161335893929190614a77565b602060405180830381600087803b15801561337257600080fd5b505af1158015613386573d6000803e3d6000fd5b505050506040513d601f19601f820116820180604052508101906133aa91906144e9565b6133e9576040517f08c379a00000000000000000000000000000000000000000000000000000000081526004016133e090614b48565b60405180910390fd5b81600a6000858152602001908152602001600020600a01600082825461340f9190614efe565b92505081905550505050565b60008161342781612944565b613466576040517f08c379a000000000000000000000000000000000000000000000000000000000815260040161345d90614ba8565b60405180910390fd5b61346f83612944565b6134ae576040517f08c379a00000000000000000000000000000000000000000000000000000000081526004016134a590614ba8565b60405180910390fd5b600a600084815260200190815260200160002060000154915050919050565b60036020528060005260406000206000915054906101000a900460ff1681565b60066020528060005260406000206000915054906101000a900473ffffffffffffffffffffffffffffffffffffffff1681565b60025481565b8161353081612944565b61356f576040517f08c379a000000000000000000000000000000000000000000000000000000000815260040161356690614ba8565b60405180910390fd5b3373ffffffffffffffffffffffffffffffffffffffff166006600083815260200190815260200160002060009054906101000a900473ffffffffffffffffffffffffffffffffffffffff1673ffffffffffffffffffffffffffffffffffffffff1614613610576040517f08c379a000000000000000000000000000000000000000000000000000000000815260040161360790614c88565b60405180910390fd5b81600a600085815260200190815260200160002060060181905550505050565b60006064600a600085815260200190815260200160002060070154836136569190614f85565b6136609190614f54565b905092915050565b60008161367481612944565b6136b3576040517f08c379a00000000000000000000000000000000000000000000000000000000081526004016136aa90614ba8565b60405180910390fd5b600a600084815260200190815260200160002060020154915050919050565b6000816136de81612944565b61371d576040517f08c379a000000000000000000000000000000000000000000000000000000000815260040161371490614ba8565b60405180910390fd5b6008600084815260200190815260200160002054915050919050565b6005602052816000526040600020602052806000526040600020600091509150505481565b60008161376a81612944565b6137a9576040517f08c379a00000000000000000000000000000000000000000000000000000000081526004016137a090614ba8565b60405180910390fd5b600a600084815260200190815260200160002060010154915050919050565b6000804290508091505090565b816137df81612944565b61381e576040517f08c379a000000000000000000000000000000000000000000000000000000000815260040161381590614ba8565b60405180910390fd5b3373ffffffffffffffffffffffffffffffffffffffff166006600083815260200190815260200160002060009054906101000a900473ffffffffffffffffffffffffffffffffffffffff1673ffffffffffffffffffffffffffffffffffffffff16146138bf576040517f08c379a00000000000000000000000000000000000000000000000000000000081526004016138b690614c88565b60405180910390fd5b81600a600085815260200190815260200160002060050160006101000a81548173ffffffffffffffffffffffffffffffffffffffff021916908373ffffffffffffffffffffffffffffffffffffffff160217905550505050565b60008161392581612944565b613964576040517f08c379a000000000000000000000000000000000000000000000000000000000815260040161395b90614ba8565b60405180910390fd5b600a600084815260200190815260200160002060090154915050919050565b60086020528060005260406000206000915090505481565b816139a581612944565b6139e4576040517f08c379a00000000000000000000000000000000000000000000000000000000081526004016139db90614ba8565b60405180910390fd5b6000805b6004600084815260200190815260200160002080549050811015613acb573373ffffffffffffffffffffffffffffffffffffffff16600460008581526020019081526020016000208281548110613a68577f4e487b7100000000000000000000000000000000000000000000000000000000600052603260045260246000fd5b9060005260206000200160009054906101000a900473ffffffffffffffffffffffffffffffffffffffff1673ffffffffffffffffffffffffffffffffffffffff161415613ab85760019150613acb565b8080613ac390615124565b9150506139e8565b5080613b0c576040517f08c379a0000000000000000000000000000000000000000000000000000000008152600401613b0390614bc8565b60405180910390fd5b6040518060400160405280600781526020017f4f6e676f696e670000000000000000000000000000000000000000000000000081525080519060200120613b5285612402565b8051906020012014613b99576040517f08c379a0000000000000000000000000000000000000000000000000000000008152600401613b9090614c48565b60405180910390fd5b600860008581526020019081526020016000205483613bb89190614f85565b3414613bf9576040517f08c379a0000000000000000000000000000000000000000000000000000000008152600401613bf090614c68565b60405180910390fd5b600a60008581526020019081526020016000206000015483600a600087815260200190815260200160002060090154613c329190614efe565b10613c72576040517f08c379a0000000000000000000000000000000000000000000000000000000008152600401613c6990614b28565b60405180910390fd5b613c7c84846129e9565b613c8557600080fd5b600a600085815260200190815260200160002060040160009054906101000a900473ffffffffffffffffffffffffffffffffffffffff1673ffffffffffffffffffffffffffffffffffffffff166323b872dd3330866040518463ffffffff1660e01b8152600401613cf893929190614a77565b602060405180830381600087803b158015613d1257600080fd5b505af1158015613d26573d6000803e3d6000fd5b505050506040513d601f19601f82011682018060405250810190613d4a91906144e9565b613d5357600080fd5b826005600086815260200190815260200160002060003373ffffffffffffffffffffffffffffffffffffffff1673ffffffffffffffffffffffffffffffffffffffff1681526020019081526020016000208190555082600a60008681526020019081526020016000206009016000828254613dce9190614efe565b9250508190555050505050565b600081613de781612944565b613e26576040517f08c379a0000000000000000000000000000000000000000000000000000000008152600401613e1d90614ba8565b60405180910390fd5b6064600a6000858152602001908152602001600020600701546005600086815260200190815260200160002060003373ffffffffffffffffffffffffffffffffffffffff1673ffffffffffffffffffffffffffffffffffffffff16815260200190815260200160002054613e9a9190614f85565b613ea49190614f54565b915050919050565b81613eb681612944565b613ef5576040517f08c379a0000000000000000000000000000000000000000000000000000000008152600401613eec90614ba8565b60405180910390fd5b3373ffffffffffffffffffffffffffffffffffffffff166006600083815260200190815260200160002060009054906101000a900473ffffffffffffffffffffffffffffffffffffffff1673ffffffffffffffffffffffffffffffffffffffff1614613f96576040517f08c379a0000000000000000000000000000000000000000000000000000000008152600401613f8d90614c88565b60405180910390fd5b81600a600085815260200190815260200160002060020181905550505050565b3373ffffffffffffffffffffffffffffffffffffffff16600960009054906101000a900473ffffffffffffffffffffffffffffffffffffffff1673ffffffffffffffffffffffffffffffffffffffff1614614046576040517f08c379a000000000000000000000000000000000000000000000000000000000815260040161403d90614c28565b60405180910390fd5b6000600360008373ffffffffffffffffffffffffffffffffffffffff1673ffffffffffffffffffffffffffffffffffffffff16815260200190815260200160002060006101000a81548160ff02191690831515021790555050565b6000816140ad81612944565b6140ec576040517f08c379a00000000000000000000000000000000000000000000000000000000081526004016140e390614ba8565b60405180910390fd5b6006600084815260200190815260200160002060009054906101000a900473ffffffffffffffffffffffffffffffffffffffff16915050919050565b600a6020528060005260406000206000915090508060000154908060010154908060020154908060030154908060040160009054906101000a900473ffffffffffffffffffffffffffffffffffffffff16908060050160009054906101000a900473ffffffffffffffffffffffffffffffffffffffff16908060060154908060070154908060080180546141bb906150c1565b80601f01602080910402602001604051908101604052809291908181526020018280546141e7906150c1565b80156142345780601f1061420957610100808354040283529160200191614234565b820191906000526020600020905b81548152906001019060200180831161421757829003601f168201915b50505050509080600901549080600a01549080600b0160009054906101000a900460ff1690508c565b60008161426981612944565b6142a8576040517f08c379a000000000000000000000000000000000000000000000000000000000815260040161429f90614ba8565b60405180910390fd5b600a600084815260200190815260200160002060050160009054906101000a900473ffffffffffffffffffffffffffffffffffffffff16915050919050565b816142f181612944565b614330576040517f08c379a000000000000000000000000000000000000000000000000000000000815260040161432790614ba8565b60405180910390fd5b81600a600085815260200190815260200160002060070181905550505050565b600960009054906101000a900473ffffffffffffffffffffffffffffffffffffffff1681565b828054614382906150c1565b90600052602060002090601f0160209004810192826143a457600085556143eb565b82601f106143bd57805160ff19168380011785556143eb565b828001600101855582156143eb579182015b828111156143ea5782518255916020019190600101906143cf565b5b5090506143f891906143fc565b5090565b5b808211156144155760008160009055506001016143fd565b5090565b600061442c61442784614e58565b614e33565b90508281526020810184848401111561444457600080fd5b61444f84828561507f565b509392505050565b600081359050614466816154c4565b92915050565b60008151905061447b816154db565b92915050565b600082601f83011261449257600080fd5b81356144a2848260208601614419565b91505092915050565b6000813590506144ba816154f2565b92915050565b6000602082840312156144d257600080fd5b60006144e084828501614457565b91505092915050565b6000602082840312156144fb57600080fd5b60006145098482850161446c565b91505092915050565b60006020828403121561452457600080fd5b6000614532848285016144ab565b91505092915050565b6000806040838503121561454e57600080fd5b600061455c858286016144ab565b925050602061456d85828601614457565b9150509250929050565b6000806040838503121561458a57600080fd5b6000614598858286016144ab565b925050602083013567ffffffffffffffff8111156145b557600080fd5b6145c185828601614481565b9150509250929050565b600080604083850312156145de57600080fd5b60006145ec858286016144ab565b92505060206145fd858286016144ab565b9150509250929050565b6000806000806000806000806000806101408b8d03121561462757600080fd5b60006146358d828e016144ab565b9a505060206146468d828e016144ab565b99505060406146578d828e016144ab565b98505060606146688d828e016144ab565b97505060806146798d828e01614457565b96505060a061468a8d828e01614457565b95505060c061469b8d828e016144ab565b94505060e06146ac8d828e01614457565b9350506101006146be8d828e016144ab565b9250506101206146d08d828e016144ab565b9150509295989b9194979a5092959850565b60006146ee83836146fa565b60208301905092915050565b61470381615013565b82525050565b61471281615013565b82525050565b600061472382614eae565b61472d8185614ed1565b935061473883614e89565b8060005b8381101561476957815161475088826146e2565b975061475b83614ec4565b92505060018101905061473c565b5085935050505092915050565b61477f81615025565b82525050565b60008154614792816150c1565b61479c8186614ee2565b945060018216600081146147b757600181146147c8576147fb565b60ff198316865281860193506147fb565b6147d185614e99565b60005b838110156147f3578154818901526001820191506020810190506147d4565b838801955050505b50505092915050565b61480d8161505b565b82525050565b600061481e82614eb9565b6148288185614eed565b935061483881856020860161508e565b61484181615229565b840191505092915050565b6000614859600e83614eed565b91506148648261523a565b602082019050919050565b600061487c600f83614eed565b915061488782615263565b602082019050919050565b600061489f601783614eed565b91506148aa8261528c565b602082019050919050565b60006148c2600983614eed565b91506148cd826152b5565b602082019050919050565b60006148e5600b83614eed565b91506148f0826152de565b602082019050919050565b6000614908600983614eed565b915061491382615307565b602082019050919050565b600061492b602883614eed565b915061493682615330565b604082019050919050565b600061494e602683614eed565b91506149598261537f565b604082019050919050565b6000614971600683614eed565b915061497c826153ce565b602082019050919050565b6000614994600b83614eed565b915061499f826153f7565b602082019050919050565b60006149b7601183614eed565b91506149c282615420565b602082019050919050565b60006149da600a83614eed565b91506149e582615449565b602082019050919050565b60006149fd600f83614eed565b9150614a0882615472565b602082019050919050565b6000614a20600c83614eed565b9150614a2b8261549b565b602082019050919050565b614a3f81615051565b82525050565b6000614a518284614785565b915081905092915050565b6000602082019050614a716000830184614709565b92915050565b6000606082019050614a8c6000830186614709565b614a996020830185614709565b614aa66040830184614a36565b949350505050565b60006020820190508181036000830152614ac88184614718565b905092915050565b6000602082019050614ae56000830184614776565b92915050565b6000602082019050614b006000830184614804565b92915050565b60006020820190508181036000830152614b208184614813565b905092915050565b60006020820190508181036000830152614b418161484c565b9050919050565b60006020820190508181036000830152614b618161486f565b9050919050565b60006020820190508181036000830152614b8181614892565b9050919050565b60006020820190508181036000830152614ba1816148b5565b9050919050565b60006020820190508181036000830152614bc1816148d8565b9050919050565b60006020820190508181036000830152614be1816148fb565b9050919050565b60006020820190508181036000830152614c018161491e565b9050919050565b60006020820190508181036000830152614c2181614941565b9050919050565b60006020820190508181036000830152614c4181614964565b9050919050565b60006020820190508181036000830152614c6181614987565b9050919050565b60006020820190508181036000830152614c81816149aa565b9050919050565b60006020820190508181036000830152614ca1816149cd565b9050919050565b60006020820190508181036000830152614cc1816149f0565b9050919050565b60006020820190508181036000830152614ce181614a13565b9050919050565b6000602082019050614cfd6000830184614a36565b92915050565b600060e082019050614d18600083018a614a36565b614d256020830189614a36565b614d326040830188614a36565b614d3f6060830187614a36565b614d4c6080830186614709565b614d5960a0830185614709565b614d6660c0830184614a36565b98975050505050505050565b600061018082019050614d88600083018f614a36565b614d95602083018e614a36565b614da2604083018d614a36565b614daf606083018c614a36565b614dbc608083018b614709565b614dc960a083018a614709565b614dd660c0830189614a36565b614de360e0830188614a36565b818103610100830152614df68187614813565b9050614e06610120830186614a36565b614e14610140830185614a36565b614e22610160830184614776565b9d9c50505050505050505050505050565b6000614e3d614e4e565b9050614e4982826150f3565b919050565b6000604051905090565b600067ffffffffffffffff821115614e7357614e726151fa565b5b614e7c82615229565b9050602081019050919050565b6000819050602082019050919050565b60008190508160005260206000209050919050565b600081519050919050565b600081519050919050565b6000602082019050919050565b600082825260208201905092915050565b600081905092915050565b600082825260208201905092915050565b6000614f0982615051565b9150614f1483615051565b9250827fffffffffffffffffffffffffffffffffffffffffffffffffffffffffffffffff03821115614f4957614f4861516d565b5b828201905092915050565b6000614f5f82615051565b9150614f6a83615051565b925082614f7a57614f7961519c565b5b828204905092915050565b6000614f9082615051565b9150614f9b83615051565b9250817fffffffffffffffffffffffffffffffffffffffffffffffffffffffffffffffff0483118215151615614fd457614fd361516d565b5b828202905092915050565b6000614fea82615051565b9150614ff583615051565b9250828210156150085761500761516d565b5b828203905092915050565b600061501e82615031565b9050919050565b60008115159050919050565b600073ffffffffffffffffffffffffffffffffffffffff82169050919050565b6000819050919050565b60006150668261506d565b9050919050565b600061507882615031565b9050919050565b82818337600083830152505050565b60005b838110156150ac578082015181840152602081019050615091565b838111156150bb576000848401525b50505050565b600060028204905060018216806150d957607f821691505b602082108114156150ed576150ec6151cb565b5b50919050565b6150fc82615229565b810181811067ffffffffffffffff8211171561511b5761511a6151fa565b5b80604052505050565b600061512f82615051565b91507fffffffffffffffffffffffffffffffffffffffffffffffffffffffffffffffff8214156151625761516161516d565b5b600182019050919050565b7f4e487b7100000000000000000000000000000000000000000000000000000000600052601160045260246000fd5b7f4e487b7100000000000000000000000000000000000000000000000000000000600052601260045260246000fd5b7f4e487b7100000000000000000000000000000000000000000000000000000000600052602260045260246000fd5b7f4e487b7100000000000000000000000000000000000000000000000000000000600052604160045260246000fd5b6000601f19601f8301169050919050565b7f4f76657253756273637269626564000000000000000000000000000000000000600082015250565b7f5472616e73666572206661696c65640000000000000000000000000000000000600082015250565b7f4d616e61676572206e6f742077686974656c6973746564000000000000000000600082015250565b7f2146696e69736865640000000000000000000000000000000000000000000000600082015250565b7f21706f6f6c657869737473000000000000000000000000000000000000000000600082015250565b7f21696e766573746f720000000000000000000000000000000000000000000000600082015250565b7f4f6e6c7920416363657373204d616e61676572732063616e20696e697469617460008201527f65206120706f6f6c000000000000000000000000000000000000000000000000602082015250565b7f61756374696f6e20656e642064617465206d75737420626520696e207468652060008201527f6675747572650000000000000000000000000000000000000000000000000000602082015250565b7f2161646d696e0000000000000000000000000000000000000000000000000000600082015250565b7f21506f6f6c616374697665000000000000000000000000000000000000000000600082015250565b7f496e737566666963656e742076616c7565000000000000000000000000000000600082015250565b7f21706f6f6c6f776e657200000000000000000000000000000000000000000000600082015250565b7f417070726f76616c206661696c65640000000000000000000000000000000000600082015250565b7f21706f6f6c6d616e616765720000000000000000000000000000000000000000600082015250565b6154cd81615013565b81146154d857600080fd5b50565b6154e481615025565b81146154ef57600080fd5b50565b6154fb81615051565b811461550657600080fd5b5056fea2646970667358221220866eb4fe9f1a9b0ec2bf25257949590d42ff6080f7eba2b20c442490f103c98164736f6c63430008010033",
  "immutableReferences": {},
  "source": "//SPDX-License-Identifier: Unlicense\npragma solidity >=0.8.1;\n\nimport \"./PoolToken.sol\";\n\ncontract IDO  {\n   \n  constructor() {\n    adminAddress = msg.sender;\n  }\n    \n  PoolToken public projectTokenInstance;\n  PoolToken public mainTokenInstance;\n\n  uint256 public poolCounter;\n\n  mapping(address => bool) public managerWhiteList;\n  mapping(uint256 => address[]) public whiteList;\n  mapping(uint256 => mapping(address => uint256)) public amountList;\n  mapping(uint256 => address) public accessManager;\n  mapping(uint256 => uint256) public tokensSold;\n  mapping(uint256 => uint256) public tokenPrice;\n  address public adminAddress;\n\n    event NewPool(\n        uint256 indexed poolId,\n        uint256 hardCap,\n        uint256 softCap,\n        uint256 startDate,\n        uint256 endDate,\n        address mainToken,\n        address projectToken,\n        uint256 minAllocationPerUser\n    );\n  \n    modifier onlyAdmin() {\n        require(adminAddress == msg.sender, '!admin');\n        _;\n    }\n\n    modifier onlyPoolManager()  {\n        require( managerWhiteList[msg.sender], '!poolmanager');\n        _;\n    }\n    \n    modifier onlyPoolOwner(uint256 idPool)  {\n        require( poolExists(idPool), '!poolexists' );\n        require( accessManager[idPool] == msg.sender, '!poolowner');\n        _;\n    }\n\n    modifier onlyInvestors(uint256 idPool)  {\n        require( poolExists(idPool), '!poolexists' );\n        bool isInvestor = false;\n        for( uint i = 0; i < whiteList[idPool].length; i++ ){\n            \n            if ( whiteList[idPool][i] == msg.sender ){\n                isInvestor = true;\n                break;\n            }\n        }\n        require( isInvestor, '!investor');\n        _;\n    }\n\n    modifier onlyExists(uint256 idPool) {\n        require(poolExists(idPool), '!poolexists');\n        _;\n    }\n\n    function poolExists(uint256 idPool) public view returns(bool) {\n        return ( poolData[idPool].created ? true : false );\n    }\n  \n  mapping(uint256 => PoolData) public poolData;\n\n  struct PoolData {\n        uint256 hardCap;\n        uint256 softCap;\n        uint256 startDate;\n        uint256 endDate;\n        address mainToken;\n        address projectToken;\n        uint256 minAllocationPerUser;\n        uint256 exchangeRate;\n        string  status;\n        uint256 totalInvested;\n        uint256 totalProjectTokens;\n        bool    created;\n  }\n\n    function addManager(address _accessManagerContract) external onlyAdmin() {\n        managerWhiteList[_accessManagerContract] = true;\n    }\n\n    function delistManager(address _accessManagerContract) external onlyAdmin() {\n        managerWhiteList[_accessManagerContract] = false;\n    }\n\n  function initiatePool(\n        uint256 hardCap,\n        uint256 softCap,\n        uint256 startDate,\n        uint256 endDate,\n        address mainToken,\n        address projectToken,\n        uint256 minAllocationPerUser,\n        address _accessManagerContract,\n        uint256 exchangeRate,\n        uint256 _tokenPrice\n       ) external onlyPoolManager() returns (uint) {\n        \n        require( managerWhiteList[_accessManagerContract] == true, \"Manager not whitelisted\");\n        require( msg.sender == _accessManagerContract, \"Only Access Managers can initiate a pool\"); \n        \n        require(\n            endDate > block.timestamp,\n            \"auction end date must be in the future\"\n        );\n        \n        uint poolId = poolCounter++;\n   \n        poolData[poolCounter] = PoolData(\n            hardCap,\n            softCap,\n            startDate,\n            endDate,\n            mainToken,\n            projectToken,\n            minAllocationPerUser,\n            exchangeRate,\n            \"\",\n            0,\n            0,\n\n            true\n        );\n\n        emit NewPool(\n            poolCounter,\n            hardCap,\n            softCap,\n            startDate,\n            endDate,\n            mainToken,\n            projectToken,\n            minAllocationPerUser\n        );\n        tokenPrice[poolCounter] = _tokenPrice;\n        accessManager[poolCounter] = _accessManagerContract;\n        return poolId;\n    }\n\n    function getPoolId ()\n        public view returns(uint256) {\n            return poolCounter; \n    }\n\n    function setHardCap(uint256 poolId,uint256 _hardCap) external onlyPoolOwner(poolId) {\n        poolData[poolId].hardCap = _hardCap; \n    }\n\n    function getHardCap(uint256 poolId) public view onlyExists(poolId) returns(uint256) {\n        require(poolExists(poolId), '!poolexists');       \n\n        return poolData[poolId].hardCap; \n    }\n\n    function setSoftCap(uint256 poolId,uint256 _softCap) external onlyPoolOwner(poolId) {\n        poolData[poolId].softCap = _softCap; \n    }\n\n    function getSoftCap(uint256 poolId) public view onlyExists(poolId) returns(uint256) {\n\n        return poolData[poolId].softCap; \n    }\n\n    function setStartDate(uint256 poolId,uint256 _startDate) external onlyPoolOwner(poolId) {\n        poolData[poolId].startDate = _startDate; \n    }\n\n    function getStartDate(uint256 poolId) public view onlyExists(poolId) returns(uint256) {\n        return poolData[poolId].startDate; \n    }\n \n    function setEndDate(uint256 poolId,uint256 _endDate) external onlyPoolOwner(poolId) {\n        poolData[poolId].endDate = _endDate; \n    }\n\n    function getEndDate(uint256 poolId) public view returns(uint256) {\n        return poolData[poolId].endDate; \n    }\n\n    function setMainToken(uint256 poolId,address  _tokenAddress) external onlyPoolOwner(poolId) {\n        poolData[poolId].mainToken = _tokenAddress; \n    }\n\n    function getMainToken(uint256 poolId) public view onlyExists(poolId) returns(address) {\n        return poolData[poolId].mainToken; \n    }\n\n    function setProjectToken(uint256 poolId,address _tokenAddress) external onlyPoolOwner(poolId) {\n        poolData[poolId].projectToken = _tokenAddress; \n    }\n\n    function getProjectToken(uint256 poolId) public view onlyExists(poolId) returns(address) {\n        return poolData[poolId].projectToken; \n    }\n\n    function setMinAllocation(uint256 poolId,uint256 _minAllocationPerUser) external onlyPoolOwner(poolId) {\n        poolData[poolId].minAllocationPerUser = _minAllocationPerUser; \n    }\n\n    function getMinAllocation(uint256 poolId) public view onlyExists(poolId) returns(uint256) {\n        return poolData[poolId].minAllocationPerUser; \n    }\n\n    function getAdminAddress(uint256 poolId) public view onlyExists(poolId) returns(address) {\n        return accessManager[poolId]; \n    }\n\n    function getExchangeRate(uint256 poolId) public view onlyExists(poolId) returns(uint256) {\n        return poolData[poolId].exchangeRate; \n    }\n\n    function setExchangeRate(uint256 poolId, uint256 newRate) public onlyExists(poolId) {\n        poolData[poolId].exchangeRate = newRate; \n    }\n\n    function setStatus(uint256 poolId,string memory _status) external onlyPoolOwner(poolId) {\n        poolData[poolId].status = _status; \n    }\n\n    function getStatus(uint256 poolId) public view onlyExists(poolId) returns(string memory) {\n        if ( keccak256(bytes(poolData[poolId].status)) == keccak256(bytes('Paused')) || keccak256(bytes(poolData[poolId].status)) == keccak256(bytes('Cancelled')) ){\n            return poolData[poolId].status;\n        } \n        if ( poolData[poolId].startDate > block.timestamp ){\n            return \"Upcoming\"        ;\n        } else  if ( poolData[poolId].startDate < block.timestamp && poolData[poolId].endDate > block.timestamp ) {\n            return \"Ongoing\";\n        } else  return \"Finished\";\n    }\n   \n    function whiteListForPool(uint256 poolId, address investor) external onlyPoolOwner(poolId) {\n        whiteList[poolId].push(investor);\n    }\n\n    function isWhiteListedForPool(uint256 poolId,address investor) public view onlyExists(poolId) returns (bool) {\n        for ( uint i = 0; i < whiteList[poolId].length; i++ ){\n             if ( whiteList[poolId][i] == investor ){\n               return true;\n             }\n         }\n         return false;\n    }\n\n    function approve(uint256 poolId, uint256 _numberOfTokens) payable external  onlyInvestors(poolId) {\n        PoolToken(poolData[poolId].mainToken).approve(msg.sender,address(this),_numberOfTokens );\n    }\n\n    function invest(uint256 poolId, uint256 _numberOfTokens) payable external  onlyInvestors(poolId) {\n        require(keccak256(bytes(getStatus(poolId))) == keccak256(bytes('Ongoing')), '!Poolactive' );\n        require( msg.value == ( _numberOfTokens * tokenPrice[poolId] ), 'Insufficent value' );\n        require( ( poolData[poolId].totalInvested + _numberOfTokens ) < poolData[poolId].hardCap, 'OverSubscribed' );\n        require( canPayout( poolId, _numberOfTokens ) );\n        require( PoolToken(poolData[poolId].mainToken).transferFrom(msg.sender, address(this), _numberOfTokens ) );\n        amountList[poolId][msg.sender] = _numberOfTokens;\n        poolData[poolId].totalInvested += _numberOfTokens;\n    }\n\n    function getAmountInvested(uint256 poolId) public view returns(uint256) {\n        return amountList[poolId][msg.sender]; \n    }\n\n    function getAmountInvestedByAddress(uint256 poolId, address investor) public view returns(uint256) {\n        return amountList[poolId][investor]; \n    }\n\n    function getExchangeAmount(uint256 poolId) public view onlyExists(poolId) returns(uint256) {\n        return ( amountList[poolId][msg.sender] * poolData[poolId].exchangeRate ) / 100; \n    }\n\n    function getExchangeAmountFor(uint256 poolId, uint256 amount) public view returns(uint256) {\n        return ( amount * poolData[poolId].exchangeRate ) / 100; \n    }\n\n    function getTotalInvested(uint256 poolId) public view onlyExists(poolId) returns(uint256) {\n        return poolData[poolId].totalInvested; \n    }\n\n    function getTokenPrice(uint256 poolId) public view onlyExists(poolId) returns(uint256) {\n        return tokenPrice[poolId]; \n    }\n\n    function approveClaim(uint256 poolId) external onlyPoolOwner(poolId){\n        require(PoolToken(poolData[poolId].projectToken).approve( address(this), msg.sender, getExchangeAmount(poolId) ));\n    }\n\n    function claim(uint256 poolId) payable external  onlyInvestors(poolId) {\n       require(keccak256(bytes(getStatus(poolId))) == keccak256(bytes('Finished')), '!Finished' );\n       uint256 claimAmount =  getExchangeAmount(poolId);\n       require( PoolToken(poolData[poolId].projectToken).transferFrom( address(this), msg.sender, claimAmount ), 'Transfer failed' );\n       amountList[poolId][msg.sender] -= claimAmount;\n       poolData[poolId].totalProjectTokens -= claimAmount;\n       tokensSold[poolId] += claimAmount;\n    }\n\n    function getTokensSold(uint256 poolId) public view onlyExists(poolId) returns (uint256){\n        return  tokensSold[poolId]; \n    }\n\n    function getInvestors(uint256 poolId) public view onlyExists(poolId) returns (address[] memory){\n        return  whiteList[poolId]; \n    }\n\n    function getProjectTokenTotal(uint256 poolId) public view onlyExists(poolId) returns (uint256){\n        return  poolData[poolId].totalProjectTokens; \n    }\n\n    function getBlockTimeStamp() public view returns(uint256) {\n        uint256 time = block.timestamp;\n        return time; \n    }\n\n    function sendProjectTokens(uint256 poolId, uint256 _numberOfTokens) payable external  onlyPoolOwner(poolId) {\n        require( msg.value == ( getExchangeAmountFor(poolId,_numberOfTokens ) * tokenPrice[poolId] ), 'Insufficent value' );\n        require( PoolToken(poolData[poolId].projectToken).approve(msg.sender, address(this), _numberOfTokens ), 'Approval failed' );\n        require( PoolToken(poolData[poolId].projectToken).transferFrom(msg.sender, address(this), _numberOfTokens ), 'Transfer failed' );\n        poolData[poolId].totalProjectTokens += _numberOfTokens;\n    }\n\n    function canPayout(uint256 poolId, uint256 additionalTokens) public view onlyExists(poolId) returns (bool){\n        return poolData[poolId].totalProjectTokens >= ( getExchangeAmountFor(poolId,poolData[poolId].totalInvested + additionalTokens) );\n    }\n\n    function approveRetrieve(uint256 poolId) external onlyPoolOwner(poolId){\n        require(PoolToken(poolData[poolId].mainToken).approve( address(this), msg.sender, poolData[poolId].totalInvested ));\n    }\n\n    function retrieveMainTokens(uint256 poolId) payable external  onlyPoolOwner(poolId) {\n        require(keccak256(bytes(getStatus(poolId))) == keccak256(bytes('Finished')), '!Finished' );\n        require( PoolToken(poolData[poolId].mainToken).transferFrom( address(this), msg.sender, poolData[poolId].totalInvested ), 'Transfer failed' );\n        poolData[poolId].totalInvested = 0;\n    }\n\n}\n",
  "sourcePath": "/home/danielo/Development/IDO-Platform/contracts/IDO.sol",
  "compiler": {
    "name": "solc",
    "version": "0.8.1+commit.df193b15.Emscripten.clang"
  },
  "schemaVersion": "3.4.2",
  "updatedAt": "2021-08-10T14:33:19.583Z",
  "devdoc": {
    "kind": "dev",
    "methods": {},
    "version": 1
  },
  "userdoc": {
    "kind": "user",
    "methods": {},
    "version": 1
  }
}