{
  "contractName": "PoolToken",
  "abi": [
    {
      "inputs": [],
      "stateMutability": "nonpayable",
      "type": "constructor"
    },
    {
      "anonymous": false,
      "inputs": [
        {
          "indexed": true,
          "internalType": "address",
          "name": "_owner",
          "type": "address"
        },
        {
          "indexed": true,
          "internalType": "address",
          "name": "_spender",
          "type": "address"
        },
        {
          "indexed": false,
          "internalType": "uint256",
          "name": "_value",
          "type": "uint256"
        }
      ],
      "name": "Approval",
      "type": "event"
    },
    {
      "anonymous": false,
      "inputs": [
        {
          "indexed": true,
          "internalType": "address",
          "name": "_from",
          "type": "address"
        },
        {
          "indexed": true,
          "internalType": "address",
          "name": "_to",
          "type": "address"
        },
        {
          "indexed": false,
          "internalType": "uint256",
          "name": "_value",
          "type": "uint256"
        }
      ],
      "name": "Transfer",
      "type": "event"
    },
    {
      "inputs": [
        {
          "internalType": "address",
          "name": "",
          "type": "address"
        },
        {
          "internalType": "address",
          "name": "",
          "type": "address"
        }
      ],
      "name": "allowance",
      "outputs": [
        {
          "internalType": "uint256",
          "name": "",
          "type": "uint256"
        }
      ],
      "stateMutability": "view",
      "type": "function"
    },
    {
      "inputs": [
        {
          "internalType": "address",
          "name": "",
          "type": "address"
        }
      ],
      "name": "balanceOf",
      "outputs": [
        {
          "internalType": "uint256",
          "name": "",
          "type": "uint256"
        }
      ],
      "stateMutability": "view",
      "type": "function"
    },
    {
      "inputs": [],
      "name": "name",
      "outputs": [
        {
          "internalType": "string",
          "name": "",
          "type": "string"
        }
      ],
      "stateMutability": "view",
      "type": "function"
    },
    {
      "inputs": [],
      "name": "standard",
      "outputs": [
        {
          "internalType": "string",
          "name": "",
          "type": "string"
        }
      ],
      "stateMutability": "view",
      "type": "function"
    },
    {
      "inputs": [],
      "name": "symbol",
      "outputs": [
        {
          "internalType": "string",
          "name": "",
          "type": "string"
        }
      ],
      "stateMutability": "view",
      "type": "function"
    },
    {
      "inputs": [],
      "name": "totalSupply",
      "outputs": [
        {
          "internalType": "uint256",
          "name": "",
          "type": "uint256"
        }
      ],
      "stateMutability": "view",
      "type": "function"
    },
    {
      "inputs": [
        {
          "internalType": "address",
          "name": "_to",
          "type": "address"
        },
        {
          "internalType": "uint256",
          "name": "_value",
          "type": "uint256"
        }
      ],
      "name": "transfer",
      "outputs": [
        {
          "internalType": "bool",
          "name": "success",
          "type": "bool"
        }
      ],
      "stateMutability": "nonpayable",
      "type": "function"
    },
    {
      "inputs": [
        {
          "internalType": "address",
          "name": "_from",
          "type": "address"
        },
        {
          "internalType": "address",
          "name": "_spender",
          "type": "address"
        },
        {
          "internalType": "uint256",
          "name": "_value",
          "type": "uint256"
        }
      ],
      "name": "approve",
      "outputs": [
        {
          "internalType": "bool",
          "name": "success",
          "type": "bool"
        }
      ],
      "stateMutability": "nonpayable",
      "type": "function"
    },
    {
      "inputs": [
        {
          "internalType": "address",
          "name": "_from",
          "type": "address"
        },
        {
          "internalType": "address",
          "name": "_to",
          "type": "address"
        },
        {
          "internalType": "uint256",
          "name": "_value",
          "type": "uint256"
        }
      ],
      "name": "transferFrom",
      "outputs": [
        {
          "internalType": "bool",
          "name": "success",
          "type": "bool"
        }
      ],
      "stateMutability": "nonpayable",
      "type": "function"
    }
  ],
  "bytecode": "0x60806040526040518060400160405280600a81526020017f506f6f6c20546f6b656e00000000000000000000000000000000000000000000815250600090805190602001906200005192919062000152565b506040518060400160405280600481526020017f506f6f6c00000000000000000000000000000000000000000000000000000000815250600190805190602001906200009f92919062000152565b506040518060400160405280600f81526020017f506f6f6c20546f6b656e2076312e30000000000000000000000000000000000081525060029080519060200190620000ed92919062000152565b50348015620000fb57600080fd5b50620f4240600381905550600354600460003373ffffffffffffffffffffffffffffffffffffffff1673ffffffffffffffffffffffffffffffffffffffff1681526020019081526020016000208190555062000267565b828054620001609062000202565b90600052602060002090601f016020900481019282620001845760008555620001d0565b82601f106200019f57805160ff1916838001178555620001d0565b82800160010185558215620001d0579182015b82811115620001cf578251825591602001919060010190620001b2565b5b509050620001df9190620001e3565b5090565b5b80821115620001fe576000816000905550600101620001e4565b5090565b600060028204905060018216806200021b57607f821691505b6020821081141562000232576200023162000238565b5b50919050565b7f4e487b7100000000000000000000000000000000000000000000000000000000600052602260045260246000fd5b610e0280620002776000396000f3fe608060405234801561001057600080fd5b50600436106100935760003560e01c806370a082311161006657806370a082311461012257806395d89b4114610152578063a9059cbb14610170578063dd62ed3e146101a0578063e1f21c67146101d057610093565b806306fdde031461009857806318160ddd146100b657806323b872dd146100d45780635a3b7e4214610104575b600080fd5b6100a0610200565b6040516100ad9190610b0d565b60405180910390f35b6100be61028e565b6040516100cb9190610b6f565b60405180910390f35b6100ee60048036038101906100e991906109ca565b610294565b6040516100fb9190610af2565b60405180910390f35b61010c610586565b6040516101199190610b0d565b60405180910390f35b61013c60048036038101906101379190610965565b610614565b6040516101499190610b6f565b60405180910390f35b61015a61062c565b6040516101679190610b0d565b60405180910390f35b61018a60048036038101906101859190610a19565b6106ba565b6040516101979190610af2565b60405180910390f35b6101ba60048036038101906101b5919061098e565b610823565b6040516101c79190610b6f565b60405180910390f35b6101ea60048036038101906101e591906109ca565b610848565b6040516101f79190610af2565b60405180910390f35b6000805461020d90610cab565b80601f016020809104026020016040519081016040528092919081815260200182805461023990610cab565b80156102865780601f1061025b57610100808354040283529160200191610286565b820191906000526020600020905b81548152906001019060200180831161026957829003601f168201915b505050505081565b60035481565b6000600460008573ffffffffffffffffffffffffffffffffffffffff1673ffffffffffffffffffffffffffffffffffffffff16815260200190815260200160002054821115610318576040517f08c379a000000000000000000000000000000000000000000000000000000000815260040161030f90610b2f565b60405180910390fd5b600560008573ffffffffffffffffffffffffffffffffffffffff1673ffffffffffffffffffffffffffffffffffffffff16815260200190815260200160002060008473ffffffffffffffffffffffffffffffffffffffff1673ffffffffffffffffffffffffffffffffffffffff168152602001908152602001600020548211156103d7576040517f08c379a00000000000000000000000000000000000000000000000000000000081526004016103ce90610b4f565b60405180910390fd5b81600460008673ffffffffffffffffffffffffffffffffffffffff1673ffffffffffffffffffffffffffffffffffffffff16815260200190815260200160002060008282546104269190610bfc565b9250508190555081600460008573ffffffffffffffffffffffffffffffffffffffff1673ffffffffffffffffffffffffffffffffffffffff168152602001908152602001600020600082825461047c9190610ba6565b9250508190555081600560008673ffffffffffffffffffffffffffffffffffffffff1673ffffffffffffffffffffffffffffffffffffffff16815260200190815260200160002060008573ffffffffffffffffffffffffffffffffffffffff1673ffffffffffffffffffffffffffffffffffffffff168152602001908152602001600020600082825461050f9190610bfc565b925050819055508273ffffffffffffffffffffffffffffffffffffffff168473ffffffffffffffffffffffffffffffffffffffff167fddf252ad1be2c89b69c2b068fc378daa952ba7f163c4a11628f55a4df523b3ef846040516105739190610b6f565b60405180910390a3600190509392505050565b6002805461059390610cab565b80601f01602080910402602001604051908101604052809291908181526020018280546105bf90610cab565b801561060c5780601f106105e15761010080835404028352916020019161060c565b820191906000526020600020905b8154815290600101906020018083116105ef57829003601f168201915b505050505081565b60046020528060005260406000206000915090505481565b6001805461063990610cab565b80601f016020809104026020016040519081016040528092919081815260200182805461066590610cab565b80156106b25780601f10610687576101008083540402835291602001916106b2565b820191906000526020600020905b81548152906001019060200180831161069557829003601f168201915b505050505081565b600081600460003373ffffffffffffffffffffffffffffffffffffffff1673ffffffffffffffffffffffffffffffffffffffff16815260200190815260200160002054101561070857600080fd5b81600460003373ffffffffffffffffffffffffffffffffffffffff1673ffffffffffffffffffffffffffffffffffffffff16815260200190815260200160002060008282546107579190610bfc565b9250508190555081600460008573ffffffffffffffffffffffffffffffffffffffff1673ffffffffffffffffffffffffffffffffffffffff16815260200190815260200160002060008282546107ad9190610ba6565b925050819055508273ffffffffffffffffffffffffffffffffffffffff163373ffffffffffffffffffffffffffffffffffffffff167fddf252ad1be2c89b69c2b068fc378daa952ba7f163c4a11628f55a4df523b3ef846040516108119190610b6f565b60405180910390a36001905092915050565b6005602052816000526040600020602052806000526040600020600091509150505481565b600081600560008673ffffffffffffffffffffffffffffffffffffffff1673ffffffffffffffffffffffffffffffffffffffff16815260200190815260200160002060008573ffffffffffffffffffffffffffffffffffffffff1673ffffffffffffffffffffffffffffffffffffffff168152602001908152602001600020819055508273ffffffffffffffffffffffffffffffffffffffff168473ffffffffffffffffffffffffffffffffffffffff167f8c5be1e5ebec7d5bd14f71427d1e84f3dd0314c0f7b2291e5b200ac8c7c3b925846040516109289190610b6f565b60405180910390a3600190509392505050565b60008135905061094a81610d9e565b92915050565b60008135905061095f81610db5565b92915050565b60006020828403121561097757600080fd5b60006109858482850161093b565b91505092915050565b600080604083850312156109a157600080fd5b60006109af8582860161093b565b92505060206109c08582860161093b565b9150509250929050565b6000806000606084860312156109df57600080fd5b60006109ed8682870161093b565b93505060206109fe8682870161093b565b9250506040610a0f86828701610950565b9150509250925092565b60008060408385031215610a2c57600080fd5b6000610a3a8582860161093b565b9250506020610a4b85828601610950565b9150509250929050565b610a5e81610c42565b82525050565b6000610a6f82610b8a565b610a798185610b95565b9350610a89818560208601610c78565b610a9281610d3b565b840191505092915050565b6000610aaa601e83610b95565b9150610ab582610d4c565b602082019050919050565b6000610acd601e83610b95565b9150610ad882610d75565b602082019050919050565b610aec81610c6e565b82525050565b6000602082019050610b076000830184610a55565b92915050565b60006020820190508181036000830152610b278184610a64565b905092915050565b60006020820190508181036000830152610b4881610a9d565b9050919050565b60006020820190508181036000830152610b6881610ac0565b9050919050565b6000602082019050610b846000830184610ae3565b92915050565b600081519050919050565b600082825260208201905092915050565b6000610bb182610c6e565b9150610bbc83610c6e565b9250827fffffffffffffffffffffffffffffffffffffffffffffffffffffffffffffffff03821115610bf157610bf0610cdd565b5b828201905092915050565b6000610c0782610c6e565b9150610c1283610c6e565b925082821015610c2557610c24610cdd565b5b828203905092915050565b6000610c3b82610c4e565b9050919050565b60008115159050919050565b600073ffffffffffffffffffffffffffffffffffffffff82169050919050565b6000819050919050565b60005b83811015610c96578082015181840152602081019050610c7b565b83811115610ca5576000848401525b50505050565b60006002820490506001821680610cc357607f821691505b60208210811415610cd757610cd6610d0c565b5b50919050565b7f4e487b7100000000000000000000000000000000000000000000000000000000600052601160045260246000fd5b7f4e487b7100000000000000000000000000000000000000000000000000000000600052602260045260246000fd5b6000601f19601f8301169050919050565b7f56616c75652065786365656473206163636f756e742062616c616e63652e0000600082015250565b7f56616c75652065786365656473207370656e6420616c6c6f77616e63652e0000600082015250565b610da781610c30565b8114610db257600080fd5b50565b610dbe81610c6e565b8114610dc957600080fd5b5056fea264697066735822122022f1c242cafd6c17ed52620ca02f8e471e8eef779d76053f5cc1143a22630aee64736f6c63430008010033",
  "immutableReferences": {},
  "source": "//SPDX-License-Identifier: Unlicense\npragma solidity >=0.8.1;\n\ncontract PoolToken {\n    string  public name = \"Pool Token\";\n    string  public symbol = \"Pool\";\n    string  public standard = \"Pool Token v1.0\";\n    uint256 public totalSupply;\n\n    event Transfer(\n        address indexed _from,\n        address indexed _to,\n        uint256 _value\n    );\n\n    event Approval(\n        address indexed _owner,\n        address indexed _spender,\n        uint256 _value\n    );\n\n    mapping(address => uint256) public balanceOf;\n    mapping(address => mapping(address => uint256)) public allowance;\n\n    constructor () {\n        totalSupply = 1000000;\n        balanceOf[msg.sender] = totalSupply;\n    }\n\n    function transfer(address _to, uint256 _value) public returns (bool success) {\n        require(balanceOf[msg.sender] >= _value);\n\n        balanceOf[msg.sender] -= _value;\n        balanceOf[_to] += _value;\n\n        emit Transfer(msg.sender, _to, _value);\n\n        return true;\n    }\n\n    function approve(address _from, address _spender, uint256 _value) public returns (bool success) {\n        allowance[_from][_spender] = _value;\n        emit Approval(_from, _spender, _value);\n        return true;\n    }\n\n    function transferFrom(address _from, address _to, uint256 _value) public returns (bool success) {\n        require(_value <= balanceOf[_from], 'Value exceeds account balance.' );\n        require(_value <= allowance[_from][_to], 'Value exceeds spend allowance.' );\n\n        balanceOf[_from] -= _value;\n        balanceOf[_to] += _value;\n\n        allowance[_from][_to] -= _value;\n\n        emit Transfer(_from, _to, _value);\n\n        return true;\n    }\n}\n\n",
  "sourcePath": "/home/danielo/Development/IDO-Platform/contracts/PoolToken.sol",
  "compiler": {
    "name": "solc",
    "version": "0.8.1+commit.df193b15.Emscripten.clang"
  },
  "schemaVersion": "3.4.2",
  "updatedAt": "2021-08-10T14:30:36.811Z",
  "devdoc": {
    "kind": "dev",
    "methods": {},
    "version": 1
  },
  "userdoc": {
    "kind": "user",
    "methods": {},
    "version": 1
  }
}